{
  "_format": "hh-sol-artifact-1",
  "contractName": "Fundraising",
  "sourceName": "contracts/Fundraising.sol",
  "abi": [
    {
      "anonymous": false,
      "inputs": [
        {
          "indexed": true,
          "internalType": "uint256",
          "name": "campaignId",
          "type": "uint256"
        },
        {
          "indexed": false,
          "internalType": "string",
          "name": "title",
          "type": "string"
        },
        {
          "indexed": true,
          "internalType": "address",
          "name": "creator",
          "type": "address"
        },
        {
          "indexed": false,
          "internalType": "uint256",
          "name": "goal",
          "type": "uint256"
        }
      ],
      "name": "CampaignCreated",
      "type": "event"
    },
    {
      "anonymous": false,
      "inputs": [
        {
          "indexed": true,
          "internalType": "uint256",
          "name": "campaignId",
          "type": "uint256"
        }
      ],
      "name": "CampaignUpdated",
      "type": "event"
    },
    {
      "anonymous": false,
      "inputs": [
        {
          "indexed": true,
          "internalType": "uint256",
          "name": "campaignId",
          "type": "uint256"
        },
        {
          "indexed": true,
          "internalType": "address",
          "name": "donor",
          "type": "address"
        },
        {
          "indexed": false,
          "internalType": "uint256",
          "name": "amount",
          "type": "uint256"
        },
        {
          "indexed": false,
          "internalType": "bool",
          "name": "isAnonymous",
          "type": "bool"
        }
      ],
      "name": "DonationReceived",
      "type": "event"
    },
    {
      "anonymous": false,
      "inputs": [
        {
          "indexed": true,
          "internalType": "uint256",
          "name": "campaignId",
          "type": "uint256"
        },
        {
          "indexed": true,
          "internalType": "address",
          "name": "creator",
          "type": "address"
        },
        {
          "indexed": false,
          "internalType": "uint256",
          "name": "amount",
          "type": "uint256"
        }
      ],
      "name": "FundsWithdrawn",
      "type": "event"
    },
    {
      "anonymous": false,
      "inputs": [
        {
          "indexed": true,
          "internalType": "address",
          "name": "previousOwner",
          "type": "address"
        },
        {
          "indexed": true,
          "internalType": "address",
          "name": "newOwner",
          "type": "address"
        }
      ],
      "name": "OwnershipTransferred",
      "type": "event"
    },
    {
      "anonymous": false,
      "inputs": [
        {
          "indexed": false,
          "internalType": "uint256",
          "name": "newFeePercentage",
          "type": "uint256"
        }
      ],
      "name": "PlatformFeeUpdated",
      "type": "event"
    },
    {
      "inputs": [
        {
          "internalType": "uint256",
          "name": "",
          "type": "uint256"
        },
        {
          "internalType": "uint256",
          "name": "",
          "type": "uint256"
        }
      ],
      "name": "campaignDonations",
      "outputs": [
        {
          "internalType": "address",
          "name": "donor",
          "type": "address"
        },
        {
          "internalType": "uint256",
          "name": "amount",
          "type": "uint256"
        },
        {
          "internalType": "uint256",
          "name": "timestamp",
          "type": "uint256"
        },
        {
          "internalType": "string",
          "name": "message",
          "type": "string"
        },
        {
          "internalType": "bool",
          "name": "isAnonymous",
          "type": "bool"
        }
      ],
      "stateMutability": "view",
      "type": "function"
    },
    {
      "inputs": [
        {
          "internalType": "uint256",
          "name": "",
          "type": "uint256"
        }
      ],
      "name": "campaigns",
      "outputs": [
        {
          "internalType": "uint256",
          "name": "id",
          "type": "uint256"
        },
        {
          "internalType": "string",
          "name": "title",
          "type": "string"
        },
        {
          "internalType": "string",
          "name": "description",
          "type": "string"
        },
        {
          "internalType": "uint256",
          "name": "goal",
          "type": "uint256"
        },
        {
          "internalType": "uint256",
          "name": "raised",
          "type": "uint256"
        },
        {
          "internalType": "uint256",
          "name": "startDate",
          "type": "uint256"
        },
        {
          "internalType": "uint256",
          "name": "endDate",
          "type": "uint256"
        },
        {
          "internalType": "address",
          "name": "creator",
          "type": "address"
        },
        {
          "internalType": "bool",
          "name": "isActive",
          "type": "bool"
        },
        {
          "internalType": "bool",
          "name": "fundsWithdrawn",
          "type": "bool"
        }
      ],
      "stateMutability": "view",
      "type": "function"
    },
    {
      "inputs": [
        {
          "internalType": "string",
          "name": "title",
          "type": "string"
        },
        {
          "internalType": "string",
          "name": "description",
          "type": "string"
        },
        {
          "internalType": "uint256",
          "name": "goal",
          "type": "uint256"
        },
        {
          "internalType": "uint256",
          "name": "startDate",
          "type": "uint256"
        },
        {
          "internalType": "uint256",
          "name": "endDate",
          "type": "uint256"
        }
      ],
      "name": "createCampaign",
      "outputs": [
        {
          "internalType": "uint256",
          "name": "",
          "type": "uint256"
        }
      ],
      "stateMutability": "nonpayable",
      "type": "function"
    },
    {
      "inputs": [
        {
          "internalType": "address",
          "name": "",
          "type": "address"
        },
        {
          "internalType": "uint256",
          "name": "",
          "type": "uint256"
        }
      ],
      "name": "creatorToCampaigns",
      "outputs": [
        {
          "internalType": "uint256",
          "name": "",
          "type": "uint256"
        }
      ],
      "stateMutability": "view",
      "type": "function"
    },
    {
      "inputs": [
        {
          "internalType": "uint256",
          "name": "campaignId",
          "type": "uint256"
        },
        {
          "internalType": "string",
          "name": "message",
          "type": "string"
        },
        {
          "internalType": "bool",
          "name": "isAnonymous",
          "type": "bool"
        }
      ],
      "name": "donate",
      "outputs": [],
      "stateMutability": "payable",
      "type": "function"
    },
    {
      "inputs": [
        {
          "internalType": "address",
          "name": "",
          "type": "address"
        },
        {
          "internalType": "uint256",
          "name": "",
          "type": "uint256"
        }
      ],
      "name": "donorToCampaigns",
      "outputs": [
        {
          "internalType": "uint256",
          "name": "",
          "type": "uint256"
        }
      ],
      "stateMutability": "view",
      "type": "function"
    },
    {
      "inputs": [
        {
          "internalType": "address",
          "name": "creator",
          "type": "address"
        }
      ],
      "name": "getCampaignsByCreator",
      "outputs": [
        {
          "internalType": "uint256[]",
          "name": "",
          "type": "uint256[]"
        }
      ],
      "stateMutability": "view",
      "type": "function"
    },
    {
      "inputs": [
        {
          "internalType": "address",
          "name": "donor",
          "type": "address"
        }
      ],
      "name": "getCampaignsByDonor",
      "outputs": [
        {
          "internalType": "uint256[]",
          "name": "",
          "type": "uint256[]"
        }
      ],
      "stateMutability": "view",
      "type": "function"
    },
    {
      "inputs": [
        {
          "internalType": "uint256",
          "name": "campaignId",
          "type": "uint256"
        }
      ],
      "name": "getDonations",
      "outputs": [
        {
          "components": [
            {
              "internalType": "address",
              "name": "donor",
              "type": "address"
            },
            {
              "internalType": "uint256",
              "name": "amount",
              "type": "uint256"
            },
            {
              "internalType": "uint256",
              "name": "timestamp",
              "type": "uint256"
            },
            {
              "internalType": "string",
              "name": "message",
              "type": "string"
            },
            {
              "internalType": "bool",
              "name": "isAnonymous",
              "type": "bool"
            }
          ],
          "internalType": "struct Fundraising.Donation[]",
          "name": "",
          "type": "tuple[]"
        }
      ],
      "stateMutability": "view",
      "type": "function"
    },
    {
      "inputs": [
        {
          "internalType": "uint256",
          "name": "campaignId",
          "type": "uint256"
        }
      ],
      "name": "hasReachedGoal",
      "outputs": [
        {
          "internalType": "bool",
          "name": "",
          "type": "bool"
        }
      ],
      "stateMutability": "view",
      "type": "function"
    },
    {
      "inputs": [],
      "name": "owner",
      "outputs": [
        {
          "internalType": "address",
          "name": "",
          "type": "address"
        }
      ],
      "stateMutability": "view",
      "type": "function"
    },
    {
      "inputs": [],
      "name": "platformFeePercentage",
      "outputs": [
        {
          "internalType": "uint256",
          "name": "",
          "type": "uint256"
        }
      ],
      "stateMutability": "view",
      "type": "function"
    },
    {
      "inputs": [],
      "name": "renounceOwnership",
      "outputs": [],
      "stateMutability": "nonpayable",
      "type": "function"
    },
    {
      "inputs": [
        {
          "internalType": "address",
          "name": "newOwner",
          "type": "address"
        }
      ],
      "name": "transferOwnership",
      "outputs": [],
      "stateMutability": "nonpayable",
      "type": "function"
    },
    {
      "inputs": [
        {
          "internalType": "uint256",
          "name": "campaignId",
          "type": "uint256"
        },
        {
          "internalType": "string",
          "name": "title",
          "type": "string"
        },
        {
          "internalType": "string",
          "name": "description",
          "type": "string"
        },
        {
          "internalType": "uint256",
          "name": "goal",
          "type": "uint256"
        },
        {
          "internalType": "uint256",
          "name": "endDate",
          "type": "uint256"
        },
        {
          "internalType": "bool",
          "name": "isActive",
          "type": "bool"
        }
      ],
      "name": "updateCampaign",
      "outputs": [],
      "stateMutability": "nonpayable",
      "type": "function"
    },
    {
      "inputs": [
        {
          "internalType": "uint256",
          "name": "newFeePercentage",
          "type": "uint256"
        }
      ],
      "name": "updatePlatformFee",
      "outputs": [],
      "stateMutability": "nonpayable",
      "type": "function"
    },
    {
      "inputs": [
        {
          "internalType": "uint256",
          "name": "campaignId",
          "type": "uint256"
        }
      ],
      "name": "withdrawFunds",
      "outputs": [],
      "stateMutability": "nonpayable",
      "type": "function"
    },
    {
      "inputs": [],
      "name": "withdrawPlatformFees",
      "outputs": [],
      "stateMutability": "nonpayable",
      "type": "function"
    }
  ],
  "bytecode": "0x608060405260646007553480156200001657600080fd5b50620000376200002b6200004460201b60201c565b6200004c60201b60201c565b6001808190555062000110565b600033905090565b60008060009054906101000a900473ffffffffffffffffffffffffffffffffffffffff169050816000806101000a81548173ffffffffffffffffffffffffffffffffffffffff021916908373ffffffffffffffffffffffffffffffffffffffff1602179055508173ffffffffffffffffffffffffffffffffffffffff168173ffffffffffffffffffffffffffffffffffffffff167f8be0079c531659141344cd1fd0a4f28419497f9722a3daafe3b4186f6b6457e060405160405180910390a35050565b61345480620001206000396000f3fe6080604052600436106101095760003560e01c8063816c616f11610095578063cdd78cfc11610064578063cdd78cfc1461039f578063d0b7830b146103ca578063d5b8d84a146103e1578063e4b2de5c1461041e578063f2fde38b1461045b57610109565b8063816c616f146102d15780638da5cb5b1461030e578063aa0b598814610339578063b5c892191461036257610109565b806336475a59116100dc57806336475a59146101c2578063530295fb146101ff578063596d9ce21461023c57806370879ff714610279578063715018a6146102ba57610109565b80630668472d1461010e578063141961bc1461012a578063155dd5ee1461017057806326b7631414610199575b600080fd5b61012860048036038101906101239190611dd5565b610484565b005b34801561013657600080fd5b50610151600480360381019061014c9190611e44565b6107c2565b6040516101679a99989796959493929190611f4f565b60405180910390f35b34801561017c57600080fd5b5061019760048036038101906101929190611e44565b610960565b005b3480156101a557600080fd5b506101c060048036038101906101bb9190611ff9565b610c43565b005b3480156101ce57600080fd5b506101e960048036038101906101e491906120ea565b610e43565b6040516101f6919061212a565b60405180910390f35b34801561020b57600080fd5b5061022660048036038101906102219190611e44565b610e74565b6040516102339190612145565b60405180910390f35b34801561024857600080fd5b50610263600480360381019061025e9190611e44565b61108e565b604051610270919061230f565b60405180910390f35b34801561028557600080fd5b506102a0600480360381019061029b9190612331565b611217565b6040516102b1959493929190612371565b60405180910390f35b3480156102c657600080fd5b506102cf61131f565b005b3480156102dd57600080fd5b506102f860048036038101906102f391906123cb565b611333565b60405161030591906124a7565b60405180910390f35b34801561031a57600080fd5b506103236113ca565b60405161033091906124c9565b60405180910390f35b34801561034557600080fd5b50610360600480360381019061035b9190611e44565b6113f3565b005b34801561036e57600080fd5b50610389600480360381019061038491906124e4565b611481565b604051610396919061212a565b60405180910390f35b3480156103ab57600080fd5b506103b461178e565b6040516103c1919061212a565b60405180910390f35b3480156103d657600080fd5b506103df611794565b005b3480156103ed57600080fd5b50610408600480360381019061040391906123cb565b611835565b60405161041591906124a7565b60405180910390f35b34801561042a57600080fd5b50610445600480360381019061044091906120ea565b6118cc565b604051610452919061212a565b60405180910390f35b34801561046757600080fd5b50610482600480360381019061047d91906123cb565b6118fd565b005b61048c611980565b60006002600085815260200190815260200160002090508060070160149054906101000a900460ff166104f4576040517f08c379a00000000000000000000000000000000000000000000000000000000081526004016104eb906125e3565b60405180910390fd5b806005015442101561053b576040517f08c379a00000000000000000000000000000000000000000000000000000000081526004016105329061264f565b60405180910390fd5b8060060154421115610582576040517f08c379a0000000000000000000000000000000000000000000000000000000008152600401610579906126bb565b60405180910390fd5b600034116105c5576040517f08c379a00000000000000000000000000000000000000000000000000000000081526004016105bc9061274d565b60405180910390fd5b348160040160008282546105d9919061279c565b92505081905550600360008581526020019081526020016000206040518060a001604052803373ffffffffffffffffffffffffffffffffffffffff168152602001348152602001428152602001858152602001841515815250908060018154018082558091505060019003906000526020600020906005020160009091909190915060008201518160000160006101000a81548173ffffffffffffffffffffffffffffffffffffffff021916908373ffffffffffffffffffffffffffffffffffffffff160217905550602082015181600101556040820151816002015560608201518160030190816106cb91906129dc565b5060808201518160040160006101000a81548160ff02191690831515021790555050506106f833856119cf565b61076357600560003373ffffffffffffffffffffffffffffffffffffffff1673ffffffffffffffffffffffffffffffffffffffff1681526020019081526020016000208490806001815401808255809150506001900390600052602060002001600090919091909150555b3373ffffffffffffffffffffffffffffffffffffffff16847f492c78b519f1197017a41990501e8c48f80a775c8d084f1370bc3cdbe8a58bd034856040516107ac929190612aae565b60405180910390a3506107bd611aba565b505050565b60026020528060005260406000206000915090508060000154908060010180546107eb906127ff565b80601f0160208091040260200160405190810160405280929190818152602001828054610817906127ff565b80156108645780601f1061083957610100808354040283529160200191610864565b820191906000526020600020905b81548152906001019060200180831161084757829003601f168201915b505050505090806002018054610879906127ff565b80601f01602080910402602001604051908101604052809291908181526020018280546108a5906127ff565b80156108f25780601f106108c7576101008083540402835291602001916108f2565b820191906000526020600020905b8154815290600101906020018083116108d557829003601f168201915b5050505050908060030154908060040154908060050154908060060154908060070160009054906101000a900473ffffffffffffffffffffffffffffffffffffffff16908060070160149054906101000a900460ff16908060070160159054906101000a900460ff1690508a565b610968611980565b60006002600083815260200190815260200160002090503373ffffffffffffffffffffffffffffffffffffffff168160070160009054906101000a900473ffffffffffffffffffffffffffffffffffffffff1673ffffffffffffffffffffffffffffffffffffffff1614610a11576040517f08c379a0000000000000000000000000000000000000000000000000000000008152600401610a0890612b49565b60405180910390fd5b8060070160159054906101000a900460ff1615610a63576040517f08c379a0000000000000000000000000000000000000000000000000000000008152600401610a5a90612bdb565b60405180910390fd5b6000816004015411610aaa576040517f08c379a0000000000000000000000000000000000000000000000000000000008152600401610aa190612c47565b60405180910390fd5b8060060154421180610ac457508060030154816004015410155b610b03576040517f08c379a0000000000000000000000000000000000000000000000000000000008152600401610afa90612cd9565b60405180910390fd5b60006127106007548360040154610b1a9190612cf9565b610b249190612d6a565b90506000818360040154610b389190612d9b565b905060018360070160156101000a81548160ff0219169083151502179055508260070160009054906101000a900473ffffffffffffffffffffffffffffffffffffffff1673ffffffffffffffffffffffffffffffffffffffff166108fc829081150290604051600060405180830381858888f19350505050158015610bc1573d6000803e3d6000fd5b508260070160009054906101000a900473ffffffffffffffffffffffffffffffffffffffff1673ffffffffffffffffffffffffffffffffffffffff16847ff440aec6b52895984d061d622e6edeba6210f7c3e059be920663140c084560d783604051610c2d919061212a565b60405180910390a3505050610c40611aba565b50565b60006002600088815260200190815260200160002090503373ffffffffffffffffffffffffffffffffffffffff168160070160009054906101000a900473ffffffffffffffffffffffffffffffffffffffff1673ffffffffffffffffffffffffffffffffffffffff1614610cec576040517f08c379a0000000000000000000000000000000000000000000000000000000008152600401610ce390612e41565b60405180910390fd5b80600601544210610d32576040517f08c379a0000000000000000000000000000000000000000000000000000000008152600401610d2990612ead565b60405180910390fd5b8060040154841015610d79576040517f08c379a0000000000000000000000000000000000000000000000000000000008152600401610d7090612f3f565b60405180910390fd5b428311610dbb576040517f08c379a0000000000000000000000000000000000000000000000000000000008152600401610db290612fab565b60405180910390fd5b85816001019081610dcc91906129dc565b5084816002019081610dde91906129dc565b50838160030181905550828160060181905550818160070160146101000a81548160ff021916908315150217905550867feb99199fa768b75351d1d205616eb313e8775bf75ad483f1a9c5dc947d9aa10560405160405180910390a250505050505050565b60046020528160005260406000208181548110610e5f57600080fd5b90600052602060002001600091509150505481565b600080600260008481526020019081526020016000206040518061014001604052908160008201548152602001600182018054610eb0906127ff565b80601f0160208091040260200160405190810160405280929190818152602001828054610edc906127ff565b8015610f295780601f10610efe57610100808354040283529160200191610f29565b820191906000526020600020905b815481529060010190602001808311610f0c57829003601f168201915b50505050508152602001600282018054610f42906127ff565b80601f0160208091040260200160405190810160405280929190818152602001828054610f6e906127ff565b8015610fbb5780601f10610f9057610100808354040283529160200191610fbb565b820191906000526020600020905b815481529060010190602001808311610f9e57829003601f168201915b50505050508152602001600382015481526020016004820154815260200160058201548152602001600682015481526020016007820160009054906101000a900473ffffffffffffffffffffffffffffffffffffffff1673ffffffffffffffffffffffffffffffffffffffff1673ffffffffffffffffffffffffffffffffffffffff1681526020016007820160149054906101000a900460ff161515151581526020016007820160159054906101000a900460ff1615151515815250509050806060015181608001511015915050919050565b606060036000838152602001908152602001600020805480602002602001604051908101604052809291908181526020016000905b8282101561120c57838290600052602060002090600502016040518060a00160405290816000820160009054906101000a900473ffffffffffffffffffffffffffffffffffffffff1673ffffffffffffffffffffffffffffffffffffffff1673ffffffffffffffffffffffffffffffffffffffff1681526020016001820154815260200160028201548152602001600382018054611160906127ff565b80601f016020809104026020016040519081016040528092919081815260200182805461118c906127ff565b80156111d95780601f106111ae576101008083540402835291602001916111d9565b820191906000526020600020905b8154815290600101906020018083116111bc57829003601f168201915b505050505081526020016004820160009054906101000a900460ff161515151581525050815260200190600101906110c3565b505050509050919050565b6003602052816000526040600020818154811061123357600080fd5b9060005260206000209060050201600091509150508060000160009054906101000a900473ffffffffffffffffffffffffffffffffffffffff1690806001015490806002015490806003018054611289906127ff565b80601f01602080910402602001604051908101604052809291908181526020018280546112b5906127ff565b80156113025780601f106112d757610100808354040283529160200191611302565b820191906000526020600020905b8154815290600101906020018083116112e557829003601f168201915b5050505050908060040160009054906101000a900460ff16905085565b611327611ac3565b6113316000611b41565b565b6060600560008373ffffffffffffffffffffffffffffffffffffffff1673ffffffffffffffffffffffffffffffffffffffff1681526020019081526020016000208054806020026020016040519081016040528092919081815260200182805480156113be57602002820191906000526020600020905b8154815260200190600101908083116113aa575b50505050509050919050565b60008060009054906101000a900473ffffffffffffffffffffffffffffffffffffffff16905090565b6113fb611ac3565b6101f4811115611440576040517f08c379a000000000000000000000000000000000000000000000000000000000815260040161143790613017565b60405180910390fd5b806007819055507f45610d581145924dd7090a5017e5f2b1d6f42213bb2e95707ff86846bbfcb1ca81604051611476919061212a565b60405180910390a150565b6000428310156114c6576040517f08c379a00000000000000000000000000000000000000000000000000000000081526004016114bd90613083565b60405180910390fd5b828211611508576040517f08c379a00000000000000000000000000000000000000000000000000000000081526004016114ff90613115565b60405180910390fd5b6000841161154b576040517f08c379a000000000000000000000000000000000000000000000000000000000815260040161154290613181565b60405180910390fd5b6006600081548092919061155e906131a1565b919050555060006006549050604051806101400160405280828152602001888152602001878152602001868152602001600081526020018581526020018481526020013373ffffffffffffffffffffffffffffffffffffffff16815260200160011515815260200160001515815250600260008381526020019081526020016000206000820151816000015560208201518160010190816115ff91906129dc565b50604082015181600201908161161591906129dc565b50606082015181600301556080820151816004015560a0820151816005015560c0820151816006015560e08201518160070160006101000a81548173ffffffffffffffffffffffffffffffffffffffff021916908373ffffffffffffffffffffffffffffffffffffffff1602179055506101008201518160070160146101000a81548160ff0219169083151502179055506101208201518160070160156101000a81548160ff021916908315150217905550905050600460003373ffffffffffffffffffffffffffffffffffffffff1673ffffffffffffffffffffffffffffffffffffffff1681526020019081526020016000208190806001815401808255809150506001900390600052602060002001600090919091909150553373ffffffffffffffffffffffffffffffffffffffff16817f85d038f2d0b3728e5fede2ce367934666edeabb735999e2be302dc035466b98b89886040516117799291906131e9565b60405180910390a38091505095945050505050565b60075481565b61179c611ac3565b6000479050600081116117e4576040517f08c379a00000000000000000000000000000000000000000000000000000000081526004016117db90613265565b60405180910390fd5b6117ec6113ca565b73ffffffffffffffffffffffffffffffffffffffff166108fc829081150290604051600060405180830381858888f19350505050158015611831573d6000803e3d6000fd5b5050565b6060600460008373ffffffffffffffffffffffffffffffffffffffff1673ffffffffffffffffffffffffffffffffffffffff1681526020019081526020016000208054806020026020016040519081016040528092919081815260200182805480156118c057602002820191906000526020600020905b8154815260200190600101908083116118ac575b50505050509050919050565b600560205281600052604060002081815481106118e857600080fd5b90600052602060002001600091509150505481565b611905611ac3565b600073ffffffffffffffffffffffffffffffffffffffff168173ffffffffffffffffffffffffffffffffffffffff1603611974576040517f08c379a000000000000000000000000000000000000000000000000000000000815260040161196b906132f7565b60405180910390fd5b61197d81611b41565b50565b6002600154036119c5576040517f08c379a00000000000000000000000000000000000000000000000000000000081526004016119bc90613363565b60405180910390fd5b6002600181905550565b600080600560008573ffffffffffffffffffffffffffffffffffffffff1673ffffffffffffffffffffffffffffffffffffffff168152602001908152602001600020805480602002602001604051908101604052809291908181526020018280548015611a5b57602002820191906000526020600020905b815481526020019060010190808311611a47575b5050505050905060005b8151811015611aad5783828281518110611a8257611a81613383565b5b602002602001015103611a9a57600192505050611ab4565b8080611aa5906131a1565b915050611a65565b5060009150505b92915050565b60018081905550565b611acb611c05565b73ffffffffffffffffffffffffffffffffffffffff16611ae96113ca565b73ffffffffffffffffffffffffffffffffffffffff1614611b3f576040517f08c379a0000000000000000000000000000000000000000000000000000000008152600401611b36906133fe565b60405180910390fd5b565b60008060009054906101000a900473ffffffffffffffffffffffffffffffffffffffff169050816000806101000a81548173ffffffffffffffffffffffffffffffffffffffff021916908373ffffffffffffffffffffffffffffffffffffffff1602179055508173ffffffffffffffffffffffffffffffffffffffff168173ffffffffffffffffffffffffffffffffffffffff167f8be0079c531659141344cd1fd0a4f28419497f9722a3daafe3b4186f6b6457e060405160405180910390a35050565b600033905090565b6000604051905090565b600080fd5b600080fd5b6000819050919050565b611c3481611c21565b8114611c3f57600080fd5b50565b600081359050611c5181611c2b565b92915050565b600080fd5b600080fd5b6000601f19601f8301169050919050565b7f4e487b7100000000000000000000000000000000000000000000000000000000600052604160045260246000fd5b611caa82611c61565b810181811067ffffffffffffffff82111715611cc957611cc8611c72565b5b80604052505050565b6000611cdc611c0d565b9050611ce88282611ca1565b919050565b600067ffffffffffffffff821115611d0857611d07611c72565b5b611d1182611c61565b9050602081019050919050565b82818337600083830152505050565b6000611d40611d3b84611ced565b611cd2565b905082815260208101848484011115611d5c57611d5b611c5c565b5b611d67848285611d1e565b509392505050565b600082601f830112611d8457611d83611c57565b5b8135611d94848260208601611d2d565b91505092915050565b60008115159050919050565b611db281611d9d565b8114611dbd57600080fd5b50565b600081359050611dcf81611da9565b92915050565b600080600060608486031215611dee57611ded611c17565b5b6000611dfc86828701611c42565b935050602084013567ffffffffffffffff811115611e1d57611e1c611c1c565b5b611e2986828701611d6f565b9250506040611e3a86828701611dc0565b9150509250925092565b600060208284031215611e5a57611e59611c17565b5b6000611e6884828501611c42565b91505092915050565b611e7a81611c21565b82525050565b600081519050919050565b600082825260208201905092915050565b60005b83811015611eba578082015181840152602081019050611e9f565b60008484015250505050565b6000611ed182611e80565b611edb8185611e8b565b9350611eeb818560208601611e9c565b611ef481611c61565b840191505092915050565b600073ffffffffffffffffffffffffffffffffffffffff82169050919050565b6000611f2a82611eff565b9050919050565b611f3a81611f1f565b82525050565b611f4981611d9d565b82525050565b600061014082019050611f65600083018d611e71565b8181036020830152611f77818c611ec6565b90508181036040830152611f8b818b611ec6565b9050611f9a606083018a611e71565b611fa76080830189611e71565b611fb460a0830188611e71565b611fc160c0830187611e71565b611fce60e0830186611f31565b611fdc610100830185611f40565b611fea610120830184611f40565b9b9a5050505050505050505050565b60008060008060008060c0878903121561201657612015611c17565b5b600061202489828a01611c42565b965050602087013567ffffffffffffffff81111561204557612044611c1c565b5b61205189828a01611d6f565b955050604087013567ffffffffffffffff81111561207257612071611c1c565b5b61207e89828a01611d6f565b945050606061208f89828a01611c42565b93505060806120a089828a01611c42565b92505060a06120b189828a01611dc0565b9150509295509295509295565b6120c781611f1f565b81146120d257600080fd5b50565b6000813590506120e4816120be565b92915050565b6000806040838503121561210157612100611c17565b5b600061210f858286016120d5565b925050602061212085828601611c42565b9150509250929050565b600060208201905061213f6000830184611e71565b92915050565b600060208201905061215a6000830184611f40565b92915050565b600081519050919050565b600082825260208201905092915050565b6000819050602082019050919050565b61219581611f1f565b82525050565b6121a481611c21565b82525050565b600082825260208201905092915050565b60006121c682611e80565b6121d081856121aa565b93506121e0818560208601611e9c565b6121e981611c61565b840191505092915050565b6121fd81611d9d565b82525050565b600060a08301600083015161221b600086018261218c565b50602083015161222e602086018261219b565b506040830151612241604086018261219b565b506060830151848203606086015261225982826121bb565b915050608083015161226e60808601826121f4565b508091505092915050565b60006122858383612203565b905092915050565b6000602082019050919050565b60006122a582612160565b6122af818561216b565b9350836020820285016122c18561217c565b8060005b858110156122fd57848403895281516122de8582612279565b94506122e98361228d565b925060208a019950506001810190506122c5565b50829750879550505050505092915050565b60006020820190508181036000830152612329818461229a565b905092915050565b6000806040838503121561234857612347611c17565b5b600061235685828601611c42565b925050602061236785828601611c42565b9150509250929050565b600060a0820190506123866000830188611f31565b6123936020830187611e71565b6123a06040830186611e71565b81810360608301526123b28185611ec6565b90506123c16080830184611f40565b9695505050505050565b6000602082840312156123e1576123e0611c17565b5b60006123ef848285016120d5565b91505092915050565b600081519050919050565b600082825260208201905092915050565b6000819050602082019050919050565b6000612430838361219b565b60208301905092915050565b6000602082019050919050565b6000612454826123f8565b61245e8185612403565b935061246983612414565b8060005b8381101561249a5781516124818882612424565b975061248c8361243c565b92505060018101905061246d565b5085935050505092915050565b600060208201905081810360008301526124c18184612449565b905092915050565b60006020820190506124de6000830184611f31565b92915050565b600080600080600060a08688031215612500576124ff611c17565b5b600086013567ffffffffffffffff81111561251e5761251d611c1c565b5b61252a88828901611d6f565b955050602086013567ffffffffffffffff81111561254b5761254a611c1c565b5b61255788828901611d6f565b945050604061256888828901611c42565b935050606061257988828901611c42565b925050608061258a88828901611c42565b9150509295509295909350565b7f43616d706169676e206973206e6f742061637469766500000000000000000000600082015250565b60006125cd601683611e8b565b91506125d882612597565b602082019050919050565b600060208201905081810360008301526125fc816125c0565b9050919050565b7f43616d706169676e20686173206e6f7420737461727465642079657400000000600082015250565b6000612639601c83611e8b565b915061264482612603565b602082019050919050565b600060208201905081810360008301526126688161262c565b9050919050565b7f43616d706169676e2068617320656e6465640000000000000000000000000000600082015250565b60006126a5601283611e8b565b91506126b08261266f565b602082019050919050565b600060208201905081810360008301526126d481612698565b9050919050565b7f446f6e6174696f6e20616d6f756e74206d75737420626520677265617465722060008201527f7468616e207a65726f0000000000000000000000000000000000000000000000602082015250565b6000612737602983611e8b565b9150612742826126db565b604082019050919050565b600060208201905081810360008301526127668161272a565b9050919050565b7f4e487b7100000000000000000000000000000000000000000000000000000000600052601160045260246000fd5b60006127a782611c21565b91506127b283611c21565b92508282019050808211156127ca576127c961276d565b5b92915050565b7f4e487b7100000000000000000000000000000000000000000000000000000000600052602260045260246000fd5b6000600282049050600182168061281757607f821691505b60208210810361282a576128296127d0565b5b50919050565b60008190508160005260206000209050919050565b60006020601f8301049050919050565b600082821b905092915050565b6000600883026128927fffffffffffffffffffffffffffffffffffffffffffffffffffffffffffffffff82612855565b61289c8683612855565b95508019841693508086168417925050509392505050565b6000819050919050565b60006128d96128d46128cf84611c21565b6128b4565b611c21565b9050919050565b6000819050919050565b6128f3836128be565b6129076128ff826128e0565b848454612862565b825550505050565b600090565b61291c61290f565b6129278184846128ea565b505050565b5b8181101561294b57612940600082612914565b60018101905061292d565b5050565b601f8211156129905761296181612830565b61296a84612845565b81016020851015612979578190505b61298d61298585612845565b83018261292c565b50505b505050565b600082821c905092915050565b60006129b360001984600802612995565b1980831691505092915050565b60006129cc83836129a2565b9150826002028217905092915050565b6129e582611e80565b67ffffffffffffffff8111156129fe576129fd611c72565b5b612a0882546127ff565b612a1382828561294f565b600060209050601f831160018114612a465760008415612a34578287015190505b612a3e85826129c0565b865550612aa6565b601f198416612a5486612830565b60005b82811015612a7c57848901518255600182019150602085019450602081019050612a57565b86831015612a995784890151612a95601f8916826129a2565b8355505b6001600288020188555050505b505050505050565b6000604082019050612ac36000830185611e71565b612ad06020830184611f40565b9392505050565b7f4f6e6c792063616d706169676e2063726561746f722063616e2077697468647260008201527f61772066756e6473000000000000000000000000000000000000000000000000602082015250565b6000612b33602883611e8b565b9150612b3e82612ad7565b604082019050919050565b60006020820190508181036000830152612b6281612b26565b9050919050565b7f46756e6473206861766520616c7265616479206265656e20776974686472617760008201527f6e00000000000000000000000000000000000000000000000000000000000000602082015250565b6000612bc5602183611e8b565b9150612bd082612b69565b604082019050919050565b60006020820190508181036000830152612bf481612bb8565b9050919050565b7f4e6f2066756e647320746f207769746864726177000000000000000000000000600082015250565b6000612c31601483611e8b565b9150612c3c82612bfb565b602082019050919050565b60006020820190508181036000830152612c6081612c24565b9050919050565b7f43616d706169676e206d75737420626520656e646564206f7220676f616c207260008201527f6561636865640000000000000000000000000000000000000000000000000000602082015250565b6000612cc3602683611e8b565b9150612cce82612c67565b604082019050919050565b60006020820190508181036000830152612cf281612cb6565b9050919050565b6000612d0482611c21565b9150612d0f83611c21565b9250828202612d1d81611c21565b91508282048414831517612d3457612d3361276d565b5b5092915050565b7f4e487b7100000000000000000000000000000000000000000000000000000000600052601260045260246000fd5b6000612d7582611c21565b9150612d8083611c21565b925082612d9057612d8f612d3b565b5b828204905092915050565b6000612da682611c21565b9150612db183611c21565b9250828203905081811115612dc957612dc861276d565b5b92915050565b7f4f6e6c792063616d706169676e2063726561746f722063616e2075706461746560008201527f2063616d706169676e0000000000000000000000000000000000000000000000602082015250565b6000612e2b602983611e8b565b9150612e3682612dcf565b604082019050919050565b60006020820190508181036000830152612e5a81612e1e565b9050919050565b7f43616d706169676e2068617320616c726561647920656e646564000000000000600082015250565b6000612e97601a83611e8b565b9150612ea282612e61565b602082019050919050565b60006020820190508181036000830152612ec681612e8a565b9050919050565b7f476f616c2063616e6e6f74206265206c657373207468616e20616d6f756e742060008201527f616c726561647920726169736564000000000000000000000000000000000000602082015250565b6000612f29602e83611e8b565b9150612f3482612ecd565b604082019050919050565b60006020820190508181036000830152612f5881612f1c565b9050919050565b7f456e642064617465206d75737420626520696e20746865206675747572650000600082015250565b6000612f95601e83611e8b565b9150612fa082612f5f565b602082019050919050565b60006020820190508181036000830152612fc481612f88565b9050919050565b7f4665652063616e6e6f7420657863656564203525000000000000000000000000600082015250565b6000613001601483611e8b565b915061300c82612fcb565b602082019050919050565b6000602082019050818103600083015261303081612ff4565b9050919050565b7f53746172742064617465206d75737420626520696e2074686520667574757265600082015250565b600061306d602083611e8b565b915061307882613037565b602082019050919050565b6000602082019050818103600083015261309c81613060565b9050919050565b7f456e642064617465206d7573742062652061667465722073746172742064617460008201527f6500000000000000000000000000000000000000000000000000000000000000602082015250565b60006130ff602183611e8b565b915061310a826130a3565b604082019050919050565b6000602082019050818103600083015261312e816130f2565b9050919050565b7f476f616c206d7573742062652067726561746572207468616e207a65726f0000600082015250565b600061316b601e83611e8b565b915061317682613135565b602082019050919050565b6000602082019050818103600083015261319a8161315e565b9050919050565b60006131ac82611c21565b91507fffffffffffffffffffffffffffffffffffffffffffffffffffffffffffffffff82036131de576131dd61276d565b5b600182019050919050565b600060408201905081810360008301526132038185611ec6565b90506132126020830184611e71565b9392505050565b7f4e6f206665657320746f20776974686472617700000000000000000000000000600082015250565b600061324f601383611e8b565b915061325a82613219565b602082019050919050565b6000602082019050818103600083015261327e81613242565b9050919050565b7f4f776e61626c653a206e6577206f776e657220697320746865207a65726f206160008201527f6464726573730000000000000000000000000000000000000000000000000000602082015250565b60006132e1602683611e8b565b91506132ec82613285565b604082019050919050565b60006020820190508181036000830152613310816132d4565b9050919050565b7f5265656e7472616e637947756172643a207265656e7472616e742063616c6c00600082015250565b600061334d601f83611e8b565b915061335882613317565b602082019050919050565b6000602082019050818103600083015261337c81613340565b9050919050565b7f4e487b7100000000000000000000000000000000000000000000000000000000600052603260045260246000fd5b7f4f776e61626c653a2063616c6c6572206973206e6f7420746865206f776e6572600082015250565b60006133e8602083611e8b565b91506133f3826133b2565b602082019050919050565b60006020820190508181036000830152613417816133db565b905091905056fea2646970667358221220760352c0ca1c6a271658a899ff0a782a9ab9a2101f280bc81dbcb3dfccea520764736f6c63430008110033",
  "linkReferences": {},
  "deployedLinkReferences": {}
}