{
  "_format": "hh-sol-artifact-1",
  "contractName": "TicketMarketplace",
  "sourceName": "contracts/TicketMarketplace.sol",
  "abi": [
    {
      "inputs": [
        {
          "internalType": "address",
          "name": "_eventTicketAddress",
          "type": "address"
        }
      ],
      "stateMutability": "nonpayable",
      "type": "constructor"
    },
    {
      "anonymous": false,
      "inputs": [
        {
          "indexed": true,
          "internalType": "uint256",
          "name": "tokenId",
          "type": "uint256"
        },
        {
          "indexed": true,
          "internalType": "address",
          "name": "seller",
          "type": "address"
        }
      ],
      "name": "ListingCancelled",
      "type": "event"
    },
    {
      "anonymous": false,
      "inputs": [
        {
          "indexed": true,
          "internalType": "uint256",
          "name": "tokenId",
          "type": "uint256"
        },
        {
          "indexed": true,
          "internalType": "address",
          "name": "seller",
          "type": "address"
        },
        {
          "indexed": true,
          "internalType": "address",
          "name": "buyer",
          "type": "address"
        },
        {
          "indexed": false,
          "internalType": "uint256",
          "name": "price",
          "type": "uint256"
        }
      ],
      "name": "OfferAccepted",
      "type": "event"
    },
    {
      "anonymous": false,
      "inputs": [
        {
          "indexed": true,
          "internalType": "uint256",
          "name": "tokenId",
          "type": "uint256"
        },
        {
          "indexed": true,
          "internalType": "address",
          "name": "buyer",
          "type": "address"
        }
      ],
      "name": "OfferCancelled",
      "type": "event"
    },
    {
      "anonymous": false,
      "inputs": [
        {
          "indexed": true,
          "internalType": "uint256",
          "name": "tokenId",
          "type": "uint256"
        },
        {
          "indexed": true,
          "internalType": "address",
          "name": "buyer",
          "type": "address"
        },
        {
          "indexed": false,
          "internalType": "uint256",
          "name": "price",
          "type": "uint256"
        },
        {
          "indexed": false,
          "internalType": "uint256",
          "name": "expirationTime",
          "type": "uint256"
        }
      ],
      "name": "OfferCreated",
      "type": "event"
    },
    {
      "anonymous": false,
      "inputs": [
        {
          "indexed": true,
          "internalType": "address",
          "name": "previousOwner",
          "type": "address"
        },
        {
          "indexed": true,
          "internalType": "address",
          "name": "newOwner",
          "type": "address"
        }
      ],
      "name": "OwnershipTransferred",
      "type": "event"
    },
    {
      "anonymous": false,
      "inputs": [
        {
          "indexed": false,
          "internalType": "uint256",
          "name": "newFeePercentage",
          "type": "uint256"
        }
      ],
      "name": "PlatformFeeUpdated",
      "type": "event"
    },
    {
      "anonymous": false,
      "inputs": [
        {
          "indexed": true,
          "internalType": "uint256",
          "name": "tokenId",
          "type": "uint256"
        },
        {
          "indexed": true,
          "internalType": "address",
          "name": "seller",
          "type": "address"
        },
        {
          "indexed": false,
          "internalType": "uint256",
          "name": "price",
          "type": "uint256"
        }
      ],
      "name": "TicketListed",
      "type": "event"
    },
    {
      "anonymous": false,
      "inputs": [
        {
          "indexed": true,
          "internalType": "uint256",
          "name": "tokenId",
          "type": "uint256"
        },
        {
          "indexed": true,
          "internalType": "address",
          "name": "seller",
          "type": "address"
        },
        {
          "indexed": true,
          "internalType": "address",
          "name": "buyer",
          "type": "address"
        },
        {
          "indexed": false,
          "internalType": "uint256",
          "name": "price",
          "type": "uint256"
        }
      ],
      "name": "TicketSold",
      "type": "event"
    },
    {
      "inputs": [
        {
          "internalType": "uint256",
          "name": "tokenId",
          "type": "uint256"
        },
        {
          "internalType": "uint256",
          "name": "offerIndex",
          "type": "uint256"
        }
      ],
      "name": "acceptOffer",
      "outputs": [],
      "stateMutability": "nonpayable",
      "type": "function"
    },
    {
      "inputs": [
        {
          "internalType": "uint256",
          "name": "tokenId",
          "type": "uint256"
        }
      ],
      "name": "buyTicket",
      "outputs": [],
      "stateMutability": "payable",
      "type": "function"
    },
    {
      "inputs": [
        {
          "internalType": "uint256",
          "name": "tokenId",
          "type": "uint256"
        }
      ],
      "name": "cancelListing",
      "outputs": [],
      "stateMutability": "nonpayable",
      "type": "function"
    },
    {
      "inputs": [
        {
          "internalType": "uint256",
          "name": "tokenId",
          "type": "uint256"
        },
        {
          "internalType": "uint256",
          "name": "offerIndex",
          "type": "uint256"
        }
      ],
      "name": "cancelOffer",
      "outputs": [],
      "stateMutability": "nonpayable",
      "type": "function"
    },
    {
      "inputs": [
        {
          "internalType": "uint256",
          "name": "tokenId",
          "type": "uint256"
        }
      ],
      "name": "getActiveOffers",
      "outputs": [
        {
          "components": [
            {
              "internalType": "uint256",
              "name": "tokenId",
              "type": "uint256"
            },
            {
              "internalType": "address",
              "name": "buyer",
              "type": "address"
            },
            {
              "internalType": "uint256",
              "name": "price",
              "type": "uint256"
            },
            {
              "internalType": "uint256",
              "name": "expirationTime",
              "type": "uint256"
            },
            {
              "internalType": "bool",
              "name": "isActive",
              "type": "bool"
            }
          ],
          "internalType": "struct TicketMarketplace.Offer[]",
          "name": "",
          "type": "tuple[]"
        }
      ],
      "stateMutability": "view",
      "type": "function"
    },
    {
      "inputs": [
        {
          "internalType": "uint256",
          "name": "tokenId",
          "type": "uint256"
        },
        {
          "internalType": "uint256",
          "name": "price",
          "type": "uint256"
        }
      ],
      "name": "listTicket",
      "outputs": [],
      "stateMutability": "nonpayable",
      "type": "function"
    },
    {
      "inputs": [
        {
          "internalType": "uint256",
          "name": "",
          "type": "uint256"
        }
      ],
      "name": "listings",
      "outputs": [
        {
          "internalType": "uint256",
          "name": "tokenId",
          "type": "uint256"
        },
        {
          "internalType": "address",
          "name": "seller",
          "type": "address"
        },
        {
          "internalType": "uint256",
          "name": "price",
          "type": "uint256"
        },
        {
          "internalType": "bool",
          "name": "isActive",
          "type": "bool"
        }
      ],
      "stateMutability": "view",
      "type": "function"
    },
    {
      "inputs": [
        {
          "internalType": "uint256",
          "name": "tokenId",
          "type": "uint256"
        },
        {
          "internalType": "uint256",
          "name": "expirationTime",
          "type": "uint256"
        }
      ],
      "name": "makeOffer",
      "outputs": [],
      "stateMutability": "payable",
      "type": "function"
    },
    {
      "inputs": [
        {
          "internalType": "uint256",
          "name": "",
          "type": "uint256"
        },
        {
          "internalType": "uint256",
          "name": "",
          "type": "uint256"
        }
      ],
      "name": "offers",
      "outputs": [
        {
          "internalType": "uint256",
          "name": "tokenId",
          "type": "uint256"
        },
        {
          "internalType": "address",
          "name": "buyer",
          "type": "address"
        },
        {
          "internalType": "uint256",
          "name": "price",
          "type": "uint256"
        },
        {
          "internalType": "uint256",
          "name": "expirationTime",
          "type": "uint256"
        },
        {
          "internalType": "bool",
          "name": "isActive",
          "type": "bool"
        }
      ],
      "stateMutability": "view",
      "type": "function"
    },
    {
      "inputs": [],
      "name": "owner",
      "outputs": [
        {
          "internalType": "address",
          "name": "",
          "type": "address"
        }
      ],
      "stateMutability": "view",
      "type": "function"
    },
    {
      "inputs": [],
      "name": "platformFeePercentage",
      "outputs": [
        {
          "internalType": "uint256",
          "name": "",
          "type": "uint256"
        }
      ],
      "stateMutability": "view",
      "type": "function"
    },
    {
      "inputs": [],
      "name": "renounceOwnership",
      "outputs": [],
      "stateMutability": "nonpayable",
      "type": "function"
    },
    {
      "inputs": [
        {
          "internalType": "address",
          "name": "newOwner",
          "type": "address"
        }
      ],
      "name": "transferOwnership",
      "outputs": [],
      "stateMutability": "nonpayable",
      "type": "function"
    },
    {
      "inputs": [
        {
          "internalType": "uint256",
          "name": "newFeePercentage",
          "type": "uint256"
        }
      ],
      "name": "updatePlatformFee",
      "outputs": [],
      "stateMutability": "nonpayable",
      "type": "function"
    },
    {
      "inputs": [],
      "name": "withdrawFees",
      "outputs": [],
      "stateMutability": "nonpayable",
      "type": "function"
    }
  ],
  "bytecode": "0x608060405260fa6005553480156200001657600080fd5b50604051620031653803806200316583398181016040528101906200003c9190620001e4565b60016000819055506200006462000058620000ac60201b60201c565b620000b460201b60201c565b80600260006101000a81548173ffffffffffffffffffffffffffffffffffffffff021916908373ffffffffffffffffffffffffffffffffffffffff1602179055505062000216565b600033905090565b6000600160009054906101000a900473ffffffffffffffffffffffffffffffffffffffff16905081600160006101000a81548173ffffffffffffffffffffffffffffffffffffffff021916908373ffffffffffffffffffffffffffffffffffffffff1602179055508173ffffffffffffffffffffffffffffffffffffffff168173ffffffffffffffffffffffffffffffffffffffff167f8be0079c531659141344cd1fd0a4f28419497f9722a3daafe3b4186f6b6457e060405160405180910390a35050565b600080fd5b600073ffffffffffffffffffffffffffffffffffffffff82169050919050565b6000620001ac826200017f565b9050919050565b620001be816200019f565b8114620001ca57600080fd5b50565b600081519050620001de81620001b3565b92915050565b600060208284031215620001fd57620001fc6200017a565b5b60006200020d84828501620001cd565b91505092915050565b612f3f80620002266000396000f3fe6080604052600436106100e85760003560e01c806381257bd51161008a578063cdd78cfc11610059578063cdd78cfc146102a0578063d45557cc146102cb578063de74e57b146102f4578063f2fde38b14610334576100e8565b806381257bd5146101e657806383a221ec1461020f5780638da5cb5b1461024c578063aa0b598814610277576100e8565b8063476343ee116100c6578063476343ee1461015b5780634d03a9a51461017257806367dd74ca146101b3578063715018a6146101cf576100e8565b806305b7cdd3146100ed578063305a67a814610109578063305a905a14610132575b600080fd5b61010760048036038101906101029190611f04565b61035d565b005b34801561011557600080fd5b50610130600480360381019061012b9190611f44565b610643565b005b34801561013e57600080fd5b5061015960048036038101906101549190611f04565b6107a2565b005b34801561016757600080fd5b50610170610c1e565b005b34801561017e57600080fd5b5061019960048036038101906101949190611f04565b610cbf565b6040516101aa959493929190611fdc565b60405180910390f35b6101cd60048036038101906101c89190611f44565b610d3f565b005b3480156101db57600080fd5b506101e4611056565b005b3480156101f257600080fd5b5061020d60048036038101906102089190611f04565b61106a565b005b34801561021b57600080fd5b5061023660048036038101906102319190611f44565b611677565b6040516102439190612173565b60405180910390f35b34801561025857600080fd5b5061026161190c565b60405161026e9190612195565b60405180910390f35b34801561028357600080fd5b5061029e60048036038101906102999190611f44565b611936565b005b3480156102ac57600080fd5b506102b56119c4565b6040516102c291906121b0565b60405180910390f35b3480156102d757600080fd5b506102f260048036038101906102ed9190611f04565b6119ca565b005b34801561030057600080fd5b5061031b60048036038101906103169190611f44565b611bfd565b60405161032b94939291906121cb565b60405180910390f35b34801561034057600080fd5b5061035b6004803603810190610356919061223c565b611c5a565b005b3373ffffffffffffffffffffffffffffffffffffffff16600260009054906101000a900473ffffffffffffffffffffffffffffffffffffffff1673ffffffffffffffffffffffffffffffffffffffff16636352211e846040518263ffffffff1660e01b81526004016103cf91906121b0565b602060405180830381865afa1580156103ec573d6000803e3d6000fd5b505050506040513d601f19601f82011682018060405250810190610410919061227e565b73ffffffffffffffffffffffffffffffffffffffff1603610466576040517f08c379a000000000000000000000000000000000000000000000000000000000815260040161045d90612308565b60405180910390fd5b600034116104a9576040517f08c379a00000000000000000000000000000000000000000000000000000000081526004016104a09061239a565b60405180910390fd5b4281116104eb576040517f08c379a00000000000000000000000000000000000000000000000000000000081526004016104e29061242c565b60405180910390fd5b600460008381526020019081526020016000206040518060a001604052808481526020013373ffffffffffffffffffffffffffffffffffffffff1681526020013481526020018381526020016001151581525090806001815401808255809150506001900390600052602060002090600502016000909190919091506000820151816000015560208201518160010160006101000a81548173ffffffffffffffffffffffffffffffffffffffff021916908373ffffffffffffffffffffffffffffffffffffffff160217905550604082015181600201556060820151816003015560808201518160040160006101000a81548160ff02191690831515021790555050503373ffffffffffffffffffffffffffffffffffffffff16827fbf26a47e2418fff23bee5882ae59627d33e81fa75ab2b1fa08de6cf5f2fa3761348460405161063792919061244c565b60405180910390a35050565b60006003600083815260200190815260200160002090508060030160009054906101000a900460ff166106ab576040517f08c379a00000000000000000000000000000000000000000000000000000000081526004016106a2906124c1565b60405180910390fd5b3373ffffffffffffffffffffffffffffffffffffffff168160010160009054906101000a900473ffffffffffffffffffffffffffffffffffffffff1673ffffffffffffffffffffffffffffffffffffffff161461073d576040517f08c379a00000000000000000000000000000000000000000000000000000000081526004016107349061252d565b60405180910390fd5b60008160030160006101000a81548160ff0219169083151502179055503373ffffffffffffffffffffffffffffffffffffffff16827f8e25282255ab31897df2b0456bb993ac7f84d376861aefd84901d2d63a7428a260405160405180910390a35050565b3373ffffffffffffffffffffffffffffffffffffffff16600260009054906101000a900473ffffffffffffffffffffffffffffffffffffffff1673ffffffffffffffffffffffffffffffffffffffff16636352211e846040518263ffffffff1660e01b815260040161081491906121b0565b602060405180830381865afa158015610831573d6000803e3d6000fd5b505050506040513d601f19601f82011682018060405250810190610855919061227e565b73ffffffffffffffffffffffffffffffffffffffff16146108ab576040517f08c379a00000000000000000000000000000000000000000000000000000000081526004016108a290612599565b60405180910390fd5b600081116108ee576040517f08c379a00000000000000000000000000000000000000000000000000000000081526004016108e590612605565b60405180910390fd5b6003600083815260200190815260200160002060030160009054906101000a900460ff1615610952576040517f08c379a000000000000000000000000000000000000000000000000000000000815260040161094990612671565b60405180910390fd5b3073ffffffffffffffffffffffffffffffffffffffff16600260009054906101000a900473ffffffffffffffffffffffffffffffffffffffff1673ffffffffffffffffffffffffffffffffffffffff1663081812fc846040518263ffffffff1660e01b81526004016109c491906121b0565b602060405180830381865afa1580156109e1573d6000803e3d6000fd5b505050506040513d601f19601f82011682018060405250810190610a05919061227e565b73ffffffffffffffffffffffffffffffffffffffff161480610ac15750600260009054906101000a900473ffffffffffffffffffffffffffffffffffffffff1673ffffffffffffffffffffffffffffffffffffffff1663e985e9c533306040518363ffffffff1660e01b8152600401610a7f929190612691565b602060405180830381865afa158015610a9c573d6000803e3d6000fd5b505050506040513d601f19601f82011682018060405250810190610ac091906126e6565b5b610b00576040517f08c379a0000000000000000000000000000000000000000000000000000000008152600401610af790612785565b60405180910390fd5b60405180608001604052808381526020013373ffffffffffffffffffffffffffffffffffffffff16815260200182815260200160011515815250600360008481526020019081526020016000206000820151816000015560208201518160010160006101000a81548173ffffffffffffffffffffffffffffffffffffffff021916908373ffffffffffffffffffffffffffffffffffffffff1602179055506040820151816002015560608201518160030160006101000a81548160ff0219169083151502179055509050503373ffffffffffffffffffffffffffffffffffffffff16827f22968ec3be3687b180f3544163a034b88d57b48159d9a7e9a1b610fdb2d05f8083604051610c1291906121b0565b60405180910390a35050565b610c26611cdd565b600047905060008111610c6e576040517f08c379a0000000000000000000000000000000000000000000000000000000008152600401610c65906127f1565b60405180910390fd5b610c7661190c565b73ffffffffffffffffffffffffffffffffffffffff166108fc829081150290604051600060405180830381858888f19350505050158015610cbb573d6000803e3d6000fd5b5050565b60046020528160005260406000208181548110610cdb57600080fd5b9060005260206000209060050201600091509150508060000154908060010160009054906101000a900473ffffffffffffffffffffffffffffffffffffffff16908060020154908060030154908060040160009054906101000a900460ff16905085565b610d47611d5b565b60006003600083815260200190815260200160002090508060030160009054906101000a900460ff16610daf576040517f08c379a0000000000000000000000000000000000000000000000000000000008152600401610da69061285d565b60405180910390fd5b8060020154341015610df6576040517f08c379a0000000000000000000000000000000000000000000000000000000008152600401610ded906128c9565b60405180910390fd5b8060010160009054906101000a900473ffffffffffffffffffffffffffffffffffffffff1673ffffffffffffffffffffffffffffffffffffffff163373ffffffffffffffffffffffffffffffffffffffff1603610e88576040517f08c379a0000000000000000000000000000000000000000000000000000000008152600401610e7f9061295b565b60405180910390fd5b60006127106005548360020154610e9f91906129aa565b610ea99190612a1b565b90506000818360020154610ebd9190612a4c565b905060008360010160009054906101000a900473ffffffffffffffffffffffffffffffffffffffff169050600260009054906101000a900473ffffffffffffffffffffffffffffffffffffffff1673ffffffffffffffffffffffffffffffffffffffff166342842e0e8233886040518463ffffffff1660e01b8152600401610f4793929190612a80565b600060405180830381600087803b158015610f6157600080fd5b505af1158015610f75573d6000803e3d6000fd5b505050508073ffffffffffffffffffffffffffffffffffffffff166108fc839081150290604051600060405180830381858888f19350505050158015610fbf573d6000803e3d6000fd5b5060008460030160006101000a81548160ff0219169083151502179055503373ffffffffffffffffffffffffffffffffffffffff168173ffffffffffffffffffffffffffffffffffffffff16867f2bbc64d6afd28a753f6c5e4aaa894f1d684c44a0e080167eae104ac8505cfebd876002015460405161103f91906121b0565b60405180910390a450505050611053611daa565b50565b61105e611cdd565b6110686000611db4565b565b611072611d5b565b3373ffffffffffffffffffffffffffffffffffffffff16600260009054906101000a900473ffffffffffffffffffffffffffffffffffffffff1673ffffffffffffffffffffffffffffffffffffffff16636352211e846040518263ffffffff1660e01b81526004016110e491906121b0565b602060405180830381865afa158015611101573d6000803e3d6000fd5b505050506040513d601f19601f82011682018060405250810190611125919061227e565b73ffffffffffffffffffffffffffffffffffffffff161461117b576040517f08c379a000000000000000000000000000000000000000000000000000000000815260040161117290612599565b60405180910390fd5b600460008381526020019081526020016000208054905081106111d3576040517f08c379a00000000000000000000000000000000000000000000000000000000081526004016111ca90612b03565b60405180910390fd5b60006004600084815260200190815260200160002082815481106111fa576111f9612b23565b5b906000526020600020906005020190508060040160009054906101000a900460ff1661125b576040517f08c379a000000000000000000000000000000000000000000000000000000000815260040161125290612b9e565b60405180910390fd5b428160030154116112a1576040517f08c379a000000000000000000000000000000000000000000000000000000000815260040161129890612c0a565b60405180910390fd5b3073ffffffffffffffffffffffffffffffffffffffff16600260009054906101000a900473ffffffffffffffffffffffffffffffffffffffff1673ffffffffffffffffffffffffffffffffffffffff1663081812fc856040518263ffffffff1660e01b815260040161131391906121b0565b602060405180830381865afa158015611330573d6000803e3d6000fd5b505050506040513d601f19601f82011682018060405250810190611354919061227e565b73ffffffffffffffffffffffffffffffffffffffff1614806114105750600260009054906101000a900473ffffffffffffffffffffffffffffffffffffffff1673ffffffffffffffffffffffffffffffffffffffff1663e985e9c533306040518363ffffffff1660e01b81526004016113ce929190612691565b602060405180830381865afa1580156113eb573d6000803e3d6000fd5b505050506040513d601f19601f8201168201806040525081019061140f91906126e6565b5b61144f576040517f08c379a000000000000000000000000000000000000000000000000000000000815260040161144690612785565b60405180910390fd5b6000612710600554836002015461146691906129aa565b6114709190612a1b565b905060008183600201546114849190612a4c565b905060008360010160009054906101000a900473ffffffffffffffffffffffffffffffffffffffff169050600260009054906101000a900473ffffffffffffffffffffffffffffffffffffffff1673ffffffffffffffffffffffffffffffffffffffff166342842e0e3383896040518463ffffffff1660e01b815260040161150e93929190612a80565b600060405180830381600087803b15801561152857600080fd5b505af115801561153c573d6000803e3d6000fd5b505050503373ffffffffffffffffffffffffffffffffffffffff166108fc839081150290604051600060405180830381858888f19350505050158015611586573d6000803e3d6000fd5b5060008460040160006101000a81548160ff0219169083151502179055506003600087815260200190815260200160002060030160009054906101000a900460ff16156115fd5760006003600088815260200190815260200160002060030160006101000a81548160ff0219169083151502179055505b8073ffffffffffffffffffffffffffffffffffffffff163373ffffffffffffffffffffffffffffffffffffffff16877fc67f49229cab3f614ad390c12432e0e671552dcfd15e24ddc005cf5a01a02135876002015460405161165f91906121b0565b60405180910390a450505050611673611daa565b5050565b6060600060046000848152602001908152602001600020805480602002602001604051908101604052809291908181526020016000905b8282101561176f57838290600052602060002090600502016040518060a0016040529081600082015481526020016001820160009054906101000a900473ffffffffffffffffffffffffffffffffffffffff1673ffffffffffffffffffffffffffffffffffffffff1673ffffffffffffffffffffffffffffffffffffffff16815260200160028201548152602001600382015481526020016004820160009054906101000a900460ff161515151581525050815260200190600101906116ae565b5050505090506000805b82518110156117f15782818151811061179557611794612b23565b5b60200260200101516080015180156117ca5750428382815181106117bc576117bb612b23565b5b602002602001015160600151115b156117de5781806117da90612c2a565b9250505b80806117e990612c2a565b915050611779565b5060008167ffffffffffffffff81111561180e5761180d612c72565b5b60405190808252806020026020018201604052801561184757816020015b611834611e82565b81526020019060019003908161182c5790505b5090506000805b84518110156118ff5784818151811061186a57611869612b23565b5b602002602001015160800151801561189f57504285828151811061189157611890612b23565b5b602002602001015160600151115b156118ec578481815181106118b7576118b6612b23565b5b60200260200101518383815181106118d2576118d1612b23565b5b602002602001018190525081806118e890612c2a565b9250505b80806118f790612c2a565b91505061184e565b5081945050505050919050565b6000600160009054906101000a900473ffffffffffffffffffffffffffffffffffffffff16905090565b61193e611cdd565b6103e8811115611983576040517f08c379a000000000000000000000000000000000000000000000000000000000815260040161197a90612ced565b60405180910390fd5b806005819055507f45610d581145924dd7090a5017e5f2b1d6f42213bb2e95707ff86846bbfcb1ca816040516119b991906121b0565b60405180910390a150565b60055481565b6119d2611d5b565b60046000838152602001908152602001600020805490508110611a2a576040517f08c379a0000000000000000000000000000000000000000000000000000000008152600401611a2190612b03565b60405180910390fd5b6000600460008481526020019081526020016000208281548110611a5157611a50612b23565b5b906000526020600020906005020190503373ffffffffffffffffffffffffffffffffffffffff168160010160009054906101000a900473ffffffffffffffffffffffffffffffffffffffff1673ffffffffffffffffffffffffffffffffffffffff1614611af3576040517f08c379a0000000000000000000000000000000000000000000000000000000008152600401611aea90612d7f565b60405180910390fd5b8060040160009054906101000a900460ff16611b44576040517f08c379a0000000000000000000000000000000000000000000000000000000008152600401611b3b90612b9e565b60405180910390fd5b3373ffffffffffffffffffffffffffffffffffffffff166108fc82600201549081150290604051600060405180830381858888f19350505050158015611b8e573d6000803e3d6000fd5b5060008160040160006101000a81548160ff0219169083151502179055503373ffffffffffffffffffffffffffffffffffffffff16837f1f51377b3e685a0e2419f9bb4ba7c07ec54936353ba3d0fb3c6538dab676622260405160405180910390a350611bf9611daa565b5050565b60036020528060005260406000206000915090508060000154908060010160009054906101000a900473ffffffffffffffffffffffffffffffffffffffff16908060020154908060030160009054906101000a900460ff16905084565b611c62611cdd565b600073ffffffffffffffffffffffffffffffffffffffff168173ffffffffffffffffffffffffffffffffffffffff1603611cd1576040517f08c379a0000000000000000000000000000000000000000000000000000000008152600401611cc890612e11565b60405180910390fd5b611cda81611db4565b50565b611ce5611e7a565b73ffffffffffffffffffffffffffffffffffffffff16611d0361190c565b73ffffffffffffffffffffffffffffffffffffffff1614611d59576040517f08c379a0000000000000000000000000000000000000000000000000000000008152600401611d5090612e7d565b60405180910390fd5b565b600260005403611da0576040517f08c379a0000000000000000000000000000000000000000000000000000000008152600401611d9790612ee9565b60405180910390fd5b6002600081905550565b6001600081905550565b6000600160009054906101000a900473ffffffffffffffffffffffffffffffffffffffff16905081600160006101000a81548173ffffffffffffffffffffffffffffffffffffffff021916908373ffffffffffffffffffffffffffffffffffffffff1602179055508173ffffffffffffffffffffffffffffffffffffffff168173ffffffffffffffffffffffffffffffffffffffff167f8be0079c531659141344cd1fd0a4f28419497f9722a3daafe3b4186f6b6457e060405160405180910390a35050565b600033905090565b6040518060a0016040528060008152602001600073ffffffffffffffffffffffffffffffffffffffff16815260200160008152602001600081526020016000151581525090565b600080fd5b6000819050919050565b611ee181611ece565b8114611eec57600080fd5b50565b600081359050611efe81611ed8565b92915050565b60008060408385031215611f1b57611f1a611ec9565b5b6000611f2985828601611eef565b9250506020611f3a85828601611eef565b9150509250929050565b600060208284031215611f5a57611f59611ec9565b5b6000611f6884828501611eef565b91505092915050565b611f7a81611ece565b82525050565b600073ffffffffffffffffffffffffffffffffffffffff82169050919050565b6000611fab82611f80565b9050919050565b611fbb81611fa0565b82525050565b60008115159050919050565b611fd681611fc1565b82525050565b600060a082019050611ff16000830188611f71565b611ffe6020830187611fb2565b61200b6040830186611f71565b6120186060830185611f71565b6120256080830184611fcd565b9695505050505050565b600081519050919050565b600082825260208201905092915050565b6000819050602082019050919050565b61206481611ece565b82525050565b61207381611fa0565b82525050565b61208281611fc1565b82525050565b60a08201600082015161209e600085018261205b565b5060208201516120b1602085018261206a565b5060408201516120c4604085018261205b565b5060608201516120d7606085018261205b565b5060808201516120ea6080850182612079565b50505050565b60006120fc8383612088565b60a08301905092915050565b6000602082019050919050565b60006121208261202f565b61212a818561203a565b93506121358361204b565b8060005b8381101561216657815161214d88826120f0565b975061215883612108565b925050600181019050612139565b5085935050505092915050565b6000602082019050818103600083015261218d8184612115565b905092915050565b60006020820190506121aa6000830184611fb2565b92915050565b60006020820190506121c56000830184611f71565b92915050565b60006080820190506121e06000830187611f71565b6121ed6020830186611fb2565b6121fa6040830185611f71565b6122076060830184611fcd565b95945050505050565b61221981611fa0565b811461222457600080fd5b50565b60008135905061223681612210565b92915050565b60006020828403121561225257612251611ec9565b5b600061226084828501612227565b91505092915050565b60008151905061227881612210565b92915050565b60006020828403121561229457612293611ec9565b5b60006122a284828501612269565b91505092915050565b600082825260208201905092915050565b7f596f7520616c7265616479206f776e2074686973207469636b65740000000000600082015250565b60006122f2601b836122ab565b91506122fd826122bc565b602082019050919050565b60006020820190508181036000830152612321816122e5565b9050919050565b7f4f66666572207072696365206d7573742062652067726561746572207468616e60008201527f207a65726f000000000000000000000000000000000000000000000000000000602082015250565b60006123846025836122ab565b915061238f82612328565b604082019050919050565b600060208201905081810360008301526123b381612377565b9050919050565b7f45787069726174696f6e2074696d65206d75737420626520696e20746865206660008201527f7574757265000000000000000000000000000000000000000000000000000000602082015250565b60006124166025836122ab565b9150612421826123ba565b604082019050919050565b6000602082019050818103600083015261244581612409565b9050919050565b60006040820190506124616000830185611f71565b61246e6020830184611f71565b9392505050565b7f4c697374696e67206973206e6f74206163746976650000000000000000000000600082015250565b60006124ab6015836122ab565b91506124b682612475565b602082019050919050565b600060208201905081810360008301526124da8161249e565b9050919050565b7f4f6e6c792073656c6c65722063616e2063616e63656c206c697374696e670000600082015250565b6000612517601e836122ab565b9150612522826124e1565b602082019050919050565b600060208201905081810360008301526125468161250a565b9050919050565b7f596f7520646f6e2774206f776e2074686973207469636b657400000000000000600082015250565b60006125836019836122ab565b915061258e8261254d565b602082019050919050565b600060208201905081810360008301526125b281612576565b9050919050565b7f5072696365206d7573742062652067726561746572207468616e207a65726f00600082015250565b60006125ef601f836122ab565b91506125fa826125b9565b602082019050919050565b6000602082019050818103600083015261261e816125e2565b9050919050565b7f5469636b657420697320616c7265616479206c69737465640000000000000000600082015250565b600061265b6018836122ab565b915061266682612625565b602082019050919050565b6000602082019050818103600083015261268a8161264e565b9050919050565b60006040820190506126a66000830185611fb2565b6126b36020830184611fb2565b9392505050565b6126c381611fc1565b81146126ce57600080fd5b50565b6000815190506126e0816126ba565b92915050565b6000602082840312156126fc576126fb611ec9565b5b600061270a848285016126d1565b91505092915050565b7f4d61726b6574706c616365206e6f7420617070726f76656420746f207472616e60008201527f73666572207469636b6574000000000000000000000000000000000000000000602082015250565b600061276f602b836122ab565b915061277a82612713565b604082019050919050565b6000602082019050818103600083015261279e81612762565b9050919050565b7f4e6f206665657320746f20776974686472617700000000000000000000000000600082015250565b60006127db6013836122ab565b91506127e6826127a5565b602082019050919050565b6000602082019050818103600083015261280a816127ce565b9050919050565b7f5469636b6574206973206e6f74206c697374656420666f722073616c65000000600082015250565b6000612847601d836122ab565b915061285282612811565b602082019050919050565b600060208201905081810360008301526128768161283a565b9050919050565b7f496e73756666696369656e74207061796d656e74000000000000000000000000600082015250565b60006128b36014836122ab565b91506128be8261287d565b602082019050919050565b600060208201905081810360008301526128e2816128a6565b9050919050565b7f53656c6c65722063616e6e6f7420627579207468656972206f776e207469636b60008201527f6574000000000000000000000000000000000000000000000000000000000000602082015250565b60006129456022836122ab565b9150612950826128e9565b604082019050919050565b6000602082019050818103600083015261297481612938565b9050919050565b7f4e487b7100000000000000000000000000000000000000000000000000000000600052601160045260246000fd5b60006129b582611ece565b91506129c083611ece565b92508282026129ce81611ece565b915082820484148315176129e5576129e461297b565b5b5092915050565b7f4e487b7100000000000000000000000000000000000000000000000000000000600052601260045260246000fd5b6000612a2682611ece565b9150612a3183611ece565b925082612a4157612a406129ec565b5b828204905092915050565b6000612a5782611ece565b9150612a6283611ece565b9250828203905081811115612a7a57612a7961297b565b5b92915050565b6000606082019050612a956000830186611fb2565b612aa26020830185611fb2565b612aaf6040830184611f71565b949350505050565b7f496e76616c6964206f6666657220696e64657800000000000000000000000000600082015250565b6000612aed6013836122ab565b9150612af882612ab7565b602082019050919050565b60006020820190508181036000830152612b1c81612ae0565b9050919050565b7f4e487b7100000000000000000000000000000000000000000000000000000000600052603260045260246000fd5b7f4f66666572206973206e6f742061637469766500000000000000000000000000600082015250565b6000612b886013836122ab565b9150612b9382612b52565b602082019050919050565b60006020820190508181036000830152612bb781612b7b565b9050919050565b7f4f66666572206861732065787069726564000000000000000000000000000000600082015250565b6000612bf46011836122ab565b9150612bff82612bbe565b602082019050919050565b60006020820190508181036000830152612c2381612be7565b9050919050565b6000612c3582611ece565b91507fffffffffffffffffffffffffffffffffffffffffffffffffffffffffffffffff8203612c6757612c6661297b565b5b600182019050919050565b7f4e487b7100000000000000000000000000000000000000000000000000000000600052604160045260246000fd5b7f4665652063616e6e6f7420657863656564203130250000000000000000000000600082015250565b6000612cd76015836122ab565b9150612ce282612ca1565b602082019050919050565b60006020820190508181036000830152612d0681612cca565b9050919050565b7f4f6e6c79207468652062757965722063616e2063616e63656c20746865206f6660008201527f6665720000000000000000000000000000000000000000000000000000000000602082015250565b6000612d696023836122ab565b9150612d7482612d0d565b604082019050919050565b60006020820190508181036000830152612d9881612d5c565b9050919050565b7f4f776e61626c653a206e6577206f776e657220697320746865207a65726f206160008201527f6464726573730000000000000000000000000000000000000000000000000000602082015250565b6000612dfb6026836122ab565b9150612e0682612d9f565b604082019050919050565b60006020820190508181036000830152612e2a81612dee565b9050919050565b7f4f776e61626c653a2063616c6c6572206973206e6f7420746865206f776e6572600082015250565b6000612e676020836122ab565b9150612e7282612e31565b602082019050919050565b60006020820190508181036000830152612e9681612e5a565b9050919050565b7f5265656e7472616e637947756172643a207265656e7472616e742063616c6c00600082015250565b6000612ed3601f836122ab565b9150612ede82612e9d565b602082019050919050565b60006020820190508181036000830152612f0281612ec6565b905091905056fea26469706673582212202325b5fb4427d0b9d133d4505697802db40f79f7b577c39cce299d3d5e84c50064736f6c63430008110033",
  "linkReferences": {},
  "deployedLinkReferences": {}
}