{
  "_format": "hh-sol-artifact-1",
  "contractName": "EventTicket",
  "sourceName": "contracts/EventTicket.sol",
  "abi": [
    {
      "inputs": [],
      "stateMutability": "nonpayable",
      "type": "constructor"
    },
    {
      "anonymous": false,
      "inputs": [
        {
          "indexed": true,
          "internalType": "address",
          "name": "owner",
          "type": "address"
        },
        {
          "indexed": true,
          "internalType": "address",
          "name": "approved",
          "type": "address"
        },
        {
          "indexed": true,
          "internalType": "uint256",
          "name": "tokenId",
          "type": "uint256"
        }
      ],
      "name": "Approval",
      "type": "event"
    },
    {
      "anonymous": false,
      "inputs": [
        {
          "indexed": true,
          "internalType": "address",
          "name": "owner",
          "type": "address"
        },
        {
          "indexed": true,
          "internalType": "address",
          "name": "operator",
          "type": "address"
        },
        {
          "indexed": false,
          "internalType": "bool",
          "name": "approved",
          "type": "bool"
        }
      ],
      "name": "ApprovalForAll",
      "type": "event"
    },
    {
      "anonymous": false,
      "inputs": [
        {
          "indexed": true,
          "internalType": "uint256",
          "name": "eventId",
          "type": "uint256"
        },
        {
          "indexed": false,
          "internalType": "string",
          "name": "name",
          "type": "string"
        },
        {
          "indexed": true,
          "internalType": "address",
          "name": "creator",
          "type": "address"
        }
      ],
      "name": "EventCreated",
      "type": "event"
    },
    {
      "anonymous": false,
      "inputs": [
        {
          "indexed": true,
          "internalType": "uint256",
          "name": "eventId",
          "type": "uint256"
        }
      ],
      "name": "EventUpdated",
      "type": "event"
    },
    {
      "anonymous": false,
      "inputs": [
        {
          "indexed": true,
          "internalType": "address",
          "name": "previousOwner",
          "type": "address"
        },
        {
          "indexed": true,
          "internalType": "address",
          "name": "newOwner",
          "type": "address"
        }
      ],
      "name": "OwnershipTransferred",
      "type": "event"
    },
    {
      "anonymous": false,
      "inputs": [
        {
          "indexed": true,
          "internalType": "uint256",
          "name": "eventId",
          "type": "uint256"
        },
        {
          "indexed": true,
          "internalType": "uint256",
          "name": "ticketTypeId",
          "type": "uint256"
        },
        {
          "indexed": true,
          "internalType": "uint256",
          "name": "tokenId",
          "type": "uint256"
        },
        {
          "indexed": false,
          "internalType": "address",
          "name": "buyer",
          "type": "address"
        }
      ],
      "name": "TicketPurchased",
      "type": "event"
    },
    {
      "anonymous": false,
      "inputs": [
        {
          "indexed": true,
          "internalType": "uint256",
          "name": "eventId",
          "type": "uint256"
        },
        {
          "indexed": true,
          "internalType": "uint256",
          "name": "ticketTypeId",
          "type": "uint256"
        },
        {
          "indexed": false,
          "internalType": "string",
          "name": "name",
          "type": "string"
        },
        {
          "indexed": false,
          "internalType": "uint256",
          "name": "price",
          "type": "uint256"
        }
      ],
      "name": "TicketTypeCreated",
      "type": "event"
    },
    {
      "anonymous": false,
      "inputs": [
        {
          "indexed": true,
          "internalType": "uint256",
          "name": "ticketTypeId",
          "type": "uint256"
        }
      ],
      "name": "TicketTypeUpdated",
      "type": "event"
    },
    {
      "anonymous": false,
      "inputs": [
        {
          "indexed": true,
          "internalType": "uint256",
          "name": "tokenId",
          "type": "uint256"
        }
      ],
      "name": "TicketUsed",
      "type": "event"
    },
    {
      "anonymous": false,
      "inputs": [
        {
          "indexed": true,
          "internalType": "address",
          "name": "from",
          "type": "address"
        },
        {
          "indexed": true,
          "internalType": "address",
          "name": "to",
          "type": "address"
        },
        {
          "indexed": true,
          "internalType": "uint256",
          "name": "tokenId",
          "type": "uint256"
        }
      ],
      "name": "Transfer",
      "type": "event"
    },
    {
      "inputs": [
        {
          "internalType": "address",
          "name": "to",
          "type": "address"
        },
        {
          "internalType": "uint256",
          "name": "tokenId",
          "type": "uint256"
        }
      ],
      "name": "approve",
      "outputs": [],
      "stateMutability": "nonpayable",
      "type": "function"
    },
    {
      "inputs": [
        {
          "internalType": "address",
          "name": "owner",
          "type": "address"
        }
      ],
      "name": "balanceOf",
      "outputs": [
        {
          "internalType": "uint256",
          "name": "",
          "type": "uint256"
        }
      ],
      "stateMutability": "view",
      "type": "function"
    },
    {
      "inputs": [
        {
          "internalType": "string",
          "name": "name",
          "type": "string"
        },
        {
          "internalType": "string",
          "name": "description",
          "type": "string"
        },
        {
          "internalType": "uint256",
          "name": "startDate",
          "type": "uint256"
        },
        {
          "internalType": "uint256",
          "name": "endDate",
          "type": "uint256"
        }
      ],
      "name": "createEvent",
      "outputs": [
        {
          "internalType": "uint256",
          "name": "",
          "type": "uint256"
        }
      ],
      "stateMutability": "nonpayable",
      "type": "function"
    },
    {
      "inputs": [
        {
          "internalType": "uint256",
          "name": "eventId",
          "type": "uint256"
        },
        {
          "internalType": "string",
          "name": "name",
          "type": "string"
        },
        {
          "internalType": "string",
          "name": "description",
          "type": "string"
        },
        {
          "internalType": "uint256",
          "name": "price",
          "type": "uint256"
        },
        {
          "internalType": "uint256",
          "name": "supply",
          "type": "uint256"
        }
      ],
      "name": "createTicketType",
      "outputs": [
        {
          "internalType": "uint256",
          "name": "",
          "type": "uint256"
        }
      ],
      "stateMutability": "nonpayable",
      "type": "function"
    },
    {
      "inputs": [
        {
          "internalType": "uint256",
          "name": "",
          "type": "uint256"
        }
      ],
      "name": "events",
      "outputs": [
        {
          "internalType": "uint256",
          "name": "id",
          "type": "uint256"
        },
        {
          "internalType": "string",
          "name": "name",
          "type": "string"
        },
        {
          "internalType": "string",
          "name": "description",
          "type": "string"
        },
        {
          "internalType": "uint256",
          "name": "startDate",
          "type": "uint256"
        },
        {
          "internalType": "uint256",
          "name": "endDate",
          "type": "uint256"
        },
        {
          "internalType": "address",
          "name": "creator",
          "type": "address"
        },
        {
          "internalType": "bool",
          "name": "isActive",
          "type": "bool"
        }
      ],
      "stateMutability": "view",
      "type": "function"
    },
    {
      "inputs": [
        {
          "internalType": "uint256",
          "name": "tokenId",
          "type": "uint256"
        }
      ],
      "name": "getApproved",
      "outputs": [
        {
          "internalType": "address",
          "name": "",
          "type": "address"
        }
      ],
      "stateMutability": "view",
      "type": "function"
    },
    {
      "inputs": [
        {
          "internalType": "address",
          "name": "creator",
          "type": "address"
        }
      ],
      "name": "getEventsByCreator",
      "outputs": [
        {
          "internalType": "uint256[]",
          "name": "",
          "type": "uint256[]"
        }
      ],
      "stateMutability": "view",
      "type": "function"
    },
    {
      "inputs": [
        {
          "internalType": "uint256",
          "name": "eventId",
          "type": "uint256"
        }
      ],
      "name": "getTicketTypesByEvent",
      "outputs": [
        {
          "internalType": "uint256[]",
          "name": "",
          "type": "uint256[]"
        }
      ],
      "stateMutability": "view",
      "type": "function"
    },
    {
      "inputs": [
        {
          "internalType": "address",
          "name": "owner",
          "type": "address"
        }
      ],
      "name": "getTicketsByOwner",
      "outputs": [
        {
          "internalType": "uint256[]",
          "name": "",
          "type": "uint256[]"
        }
      ],
      "stateMutability": "view",
      "type": "function"
    },
    {
      "inputs": [
        {
          "internalType": "address",
          "name": "owner",
          "type": "address"
        },
        {
          "internalType": "address",
          "name": "operator",
          "type": "address"
        }
      ],
      "name": "isApprovedForAll",
      "outputs": [
        {
          "internalType": "bool",
          "name": "",
          "type": "bool"
        }
      ],
      "stateMutability": "view",
      "type": "function"
    },
    {
      "inputs": [
        {
          "internalType": "uint256",
          "name": "tokenId",
          "type": "uint256"
        }
      ],
      "name": "isTicketValid",
      "outputs": [
        {
          "internalType": "bool",
          "name": "",
          "type": "bool"
        }
      ],
      "stateMutability": "view",
      "type": "function"
    },
    {
      "inputs": [],
      "name": "name",
      "outputs": [
        {
          "internalType": "string",
          "name": "",
          "type": "string"
        }
      ],
      "stateMutability": "view",
      "type": "function"
    },
    {
      "inputs": [],
      "name": "owner",
      "outputs": [
        {
          "internalType": "address",
          "name": "",
          "type": "address"
        }
      ],
      "stateMutability": "view",
      "type": "function"
    },
    {
      "inputs": [
        {
          "internalType": "uint256",
          "name": "tokenId",
          "type": "uint256"
        }
      ],
      "name": "ownerOf",
      "outputs": [
        {
          "internalType": "address",
          "name": "",
          "type": "address"
        }
      ],
      "stateMutability": "view",
      "type": "function"
    },
    {
      "inputs": [
        {
          "internalType": "uint256",
          "name": "ticketTypeId",
          "type": "uint256"
        },
        {
          "internalType": "string",
          "name": "tokenURI",
          "type": "string"
        }
      ],
      "name": "purchaseTicket",
      "outputs": [
        {
          "internalType": "uint256",
          "name": "",
          "type": "uint256"
        }
      ],
      "stateMutability": "payable",
      "type": "function"
    },
    {
      "inputs": [],
      "name": "renounceOwnership",
      "outputs": [],
      "stateMutability": "nonpayable",
      "type": "function"
    },
    {
      "inputs": [
        {
          "internalType": "address",
          "name": "from",
          "type": "address"
        },
        {
          "internalType": "address",
          "name": "to",
          "type": "address"
        },
        {
          "internalType": "uint256",
          "name": "tokenId",
          "type": "uint256"
        }
      ],
      "name": "safeTransferFrom",
      "outputs": [],
      "stateMutability": "nonpayable",
      "type": "function"
    },
    {
      "inputs": [
        {
          "internalType": "address",
          "name": "from",
          "type": "address"
        },
        {
          "internalType": "address",
          "name": "to",
          "type": "address"
        },
        {
          "internalType": "uint256",
          "name": "tokenId",
          "type": "uint256"
        },
        {
          "internalType": "bytes",
          "name": "data",
          "type": "bytes"
        }
      ],
      "name": "safeTransferFrom",
      "outputs": [],
      "stateMutability": "nonpayable",
      "type": "function"
    },
    {
      "inputs": [
        {
          "internalType": "address",
          "name": "operator",
          "type": "address"
        },
        {
          "internalType": "bool",
          "name": "approved",
          "type": "bool"
        }
      ],
      "name": "setApprovalForAll",
      "outputs": [],
      "stateMutability": "nonpayable",
      "type": "function"
    },
    {
      "inputs": [
        {
          "internalType": "bytes4",
          "name": "interfaceId",
          "type": "bytes4"
        }
      ],
      "name": "supportsInterface",
      "outputs": [
        {
          "internalType": "bool",
          "name": "",
          "type": "bool"
        }
      ],
      "stateMutability": "view",
      "type": "function"
    },
    {
      "inputs": [],
      "name": "symbol",
      "outputs": [
        {
          "internalType": "string",
          "name": "",
          "type": "string"
        }
      ],
      "stateMutability": "view",
      "type": "function"
    },
    {
      "inputs": [
        {
          "internalType": "uint256",
          "name": "",
          "type": "uint256"
        }
      ],
      "name": "ticketTypes",
      "outputs": [
        {
          "internalType": "uint256",
          "name": "id",
          "type": "uint256"
        },
        {
          "internalType": "uint256",
          "name": "eventId",
          "type": "uint256"
        },
        {
          "internalType": "string",
          "name": "name",
          "type": "string"
        },
        {
          "internalType": "string",
          "name": "description",
          "type": "string"
        },
        {
          "internalType": "uint256",
          "name": "price",
          "type": "uint256"
        },
        {
          "internalType": "uint256",
          "name": "supply",
          "type": "uint256"
        },
        {
          "internalType": "uint256",
          "name": "sold",
          "type": "uint256"
        },
        {
          "internalType": "bool",
          "name": "isActive",
          "type": "bool"
        }
      ],
      "stateMutability": "view",
      "type": "function"
    },
    {
      "inputs": [
        {
          "internalType": "uint256",
          "name": "",
          "type": "uint256"
        }
      ],
      "name": "tickets",
      "outputs": [
        {
          "internalType": "uint256",
          "name": "eventId",
          "type": "uint256"
        },
        {
          "internalType": "uint256",
          "name": "ticketTypeId",
          "type": "uint256"
        },
        {
          "internalType": "bool",
          "name": "isUsed",
          "type": "bool"
        },
        {
          "internalType": "uint256",
          "name": "purchaseDate",
          "type": "uint256"
        }
      ],
      "stateMutability": "view",
      "type": "function"
    },
    {
      "inputs": [
        {
          "internalType": "uint256",
          "name": "tokenId",
          "type": "uint256"
        }
      ],
      "name": "tokenURI",
      "outputs": [
        {
          "internalType": "string",
          "name": "",
          "type": "string"
        }
      ],
      "stateMutability": "view",
      "type": "function"
    },
    {
      "inputs": [
        {
          "internalType": "address",
          "name": "from",
          "type": "address"
        },
        {
          "internalType": "address",
          "name": "to",
          "type": "address"
        },
        {
          "internalType": "uint256",
          "name": "tokenId",
          "type": "uint256"
        }
      ],
      "name": "transferFrom",
      "outputs": [],
      "stateMutability": "nonpayable",
      "type": "function"
    },
    {
      "inputs": [
        {
          "internalType": "address",
          "name": "newOwner",
          "type": "address"
        }
      ],
      "name": "transferOwnership",
      "outputs": [],
      "stateMutability": "nonpayable",
      "type": "function"
    },
    {
      "inputs": [
        {
          "internalType": "uint256",
          "name": "eventId",
          "type": "uint256"
        },
        {
          "internalType": "string",
          "name": "name",
          "type": "string"
        },
        {
          "internalType": "string",
          "name": "description",
          "type": "string"
        },
        {
          "internalType": "uint256",
          "name": "startDate",
          "type": "uint256"
        },
        {
          "internalType": "uint256",
          "name": "endDate",
          "type": "uint256"
        },
        {
          "internalType": "bool",
          "name": "isActive",
          "type": "bool"
        }
      ],
      "name": "updateEvent",
      "outputs": [],
      "stateMutability": "nonpayable",
      "type": "function"
    },
    {
      "inputs": [
        {
          "internalType": "uint256",
          "name": "ticketTypeId",
          "type": "uint256"
        },
        {
          "internalType": "string",
          "name": "name",
          "type": "string"
        },
        {
          "internalType": "string",
          "name": "description",
          "type": "string"
        },
        {
          "internalType": "uint256",
          "name": "price",
          "type": "uint256"
        },
        {
          "internalType": "uint256",
          "name": "supply",
          "type": "uint256"
        },
        {
          "internalType": "bool",
          "name": "isActive",
          "type": "bool"
        }
      ],
      "name": "updateTicketType",
      "outputs": [],
      "stateMutability": "nonpayable",
      "type": "function"
    },
    {
      "inputs": [
        {
          "internalType": "uint256",
          "name": "tokenId",
          "type": "uint256"
        }
      ],
      "name": "useTicket",
      "outputs": [],
      "stateMutability": "nonpayable",
      "type": "function"
    }
  ],
  "bytecode": "0x60806040523480156200001157600080fd5b506040518060400160405280601581526020017f426c6f636b546978204576656e74205469636b657400000000000000000000008152506040518060400160405280600481526020017f425449580000000000000000000000000000000000000000000000000000000081525081600090816200008f91906200041a565b508060019081620000a191906200041a565b505050620000c4620000b8620000d260201b60201c565b620000da60201b60201c565b600160088190555062000501565b600033905090565b6000600760009054906101000a900473ffffffffffffffffffffffffffffffffffffffff16905081600760006101000a81548173ffffffffffffffffffffffffffffffffffffffff021916908373ffffffffffffffffffffffffffffffffffffffff1602179055508173ffffffffffffffffffffffffffffffffffffffff168173ffffffffffffffffffffffffffffffffffffffff167f8be0079c531659141344cd1fd0a4f28419497f9722a3daafe3b4186f6b6457e060405160405180910390a35050565b600081519050919050565b7f4e487b7100000000000000000000000000000000000000000000000000000000600052604160045260246000fd5b7f4e487b7100000000000000000000000000000000000000000000000000000000600052602260045260246000fd5b600060028204905060018216806200022257607f821691505b602082108103620002385762000237620001da565b5b50919050565b60008190508160005260206000209050919050565b60006020601f8301049050919050565b600082821b905092915050565b600060088302620002a27fffffffffffffffffffffffffffffffffffffffffffffffffffffffffffffffff8262000263565b620002ae868362000263565b95508019841693508086168417925050509392505050565b6000819050919050565b6000819050919050565b6000620002fb620002f5620002ef84620002c6565b620002d0565b620002c6565b9050919050565b6000819050919050565b6200031783620002da565b6200032f620003268262000302565b84845462000270565b825550505050565b600090565b6200034662000337565b620003538184846200030c565b505050565b5b818110156200037b576200036f6000826200033c565b60018101905062000359565b5050565b601f821115620003ca5762000394816200023e565b6200039f8462000253565b81016020851015620003af578190505b620003c7620003be8562000253565b83018262000358565b50505b505050565b600082821c905092915050565b6000620003ef60001984600802620003cf565b1980831691505092915050565b60006200040a8383620003dc565b9150826002028217905092915050565b6200042582620001a0565b67ffffffffffffffff811115620004415762000440620001ab565b5b6200044d825462000209565b6200045a8282856200037f565b600060209050601f8311600181146200049257600084156200047d578287015190505b620004898582620003fc565b865550620004f9565b601f198416620004a2866200023e565b60005b82811015620004cc57848901518255600182019150602085019450602081019050620004a5565b86831015620004ec5784890151620004e8601f891682620003dc565b8355505b6001600288020188555050505b505050505050565b61553c80620005116000396000f3fe6080604052600436106101c25760003560e01c806370a08231116100f7578063bce062b911610095578063e9dbebce11610064578063e9dbebce146106c9578063f2fde38b1461070d578063f73fd76a14610736578063fb3ae56f14610766576101c2565b8063bce062b9146105e9578063c61f13f314610626578063c87b56dd1461064f578063e985e9c51461068c576101c2565b80638da5cb5b116100d15780638da5cb5b1461054157806395d89b411461056c578063a22cb46514610597578063b88d4fde146105c0576101c2565b806370a08231146104c4578063715018a614610501578063821a157e14610518576101c2565b8063266064481161016457806361e5fb3d1161013e57806361e5fb3d146103d05780636352211e1461040d57806367aa23e21461044a57806368d3a5bf14610487576101c2565b8063266064481461033e57806342842e0e1461036757806350b4471214610390576101c2565b8063095ea7b3116101a0578063095ea7b31461026c5780630b7914301461029557806320020581146102d857806323b872dd14610315576101c2565b806301ffc9a7146101c757806306fdde0314610204578063081812fc1461022f575b600080fd5b3480156101d357600080fd5b506101ee60048036038101906101e9919061365b565b6107a3565b6040516101fb91906136a3565b60405180910390f35b34801561021057600080fd5b50610219610885565b604051610226919061374e565b60405180910390f35b34801561023b57600080fd5b50610256600480360381019061025191906137a6565b610917565b6040516102639190613814565b60405180910390f35b34801561027857600080fd5b50610293600480360381019061028e919061385b565b61095d565b005b3480156102a157600080fd5b506102bc60048036038101906102b791906137a6565b610a74565b6040516102cf97969594939291906138aa565b60405180910390f35b3480156102e457600080fd5b506102ff60048036038101906102fa9190613927565b610bf3565b60405161030c9190613a12565b60405180910390f35b34801561032157600080fd5b5061033c60048036038101906103379190613a34565b610c8a565b005b34801561034a57600080fd5b50610365600480360381019061036091906137a6565b610cea565b005b34801561037357600080fd5b5061038e60048036038101906103899190613a34565b610df6565b005b34801561039c57600080fd5b506103b760048036038101906103b291906137a6565b610e16565b6040516103c79493929190613a87565b60405180910390f35b3480156103dc57600080fd5b506103f760048036038101906103f291906137a6565b610e53565b6040516104049190613a12565b60405180910390f35b34801561041957600080fd5b50610434600480360381019061042f91906137a6565b610ebe565b6040516104419190613814565b60405180910390f35b34801561045657600080fd5b50610471600480360381019061046c9190613927565b610f44565b60405161047e9190613a12565b60405180910390f35b34801561049357600080fd5b506104ae60048036038101906104a99190613c01565b610fdb565b6040516104bb9190613cb4565b60405180910390f35b3480156104d057600080fd5b506104eb60048036038101906104e69190613927565b611293565b6040516104f89190613cb4565b60405180910390f35b34801561050d57600080fd5b5061051661134a565b005b34801561052457600080fd5b5061053f600480360381019061053a9190613cfb565b61135e565b005b34801561054d57600080fd5b50610556611562565b6040516105639190613814565b60405180910390f35b34801561057857600080fd5b5061058161158c565b60405161058e919061374e565b60405180910390f35b3480156105a357600080fd5b506105be60048036038101906105b99190613dc0565b61161e565b005b3480156105cc57600080fd5b506105e760048036038101906105e29190613ea1565b611634565b005b3480156105f557600080fd5b50610610600480360381019061060b9190613f24565b611696565b60405161061d9190613cb4565b60405180910390f35b34801561063257600080fd5b5061064d60048036038101906106489190613cfb565b611909565b005b34801561065b57600080fd5b50610676600480360381019061067191906137a6565b611b33565b604051610683919061374e565b60405180910390f35b34801561069857600080fd5b506106b360048036038101906106ae9190613fc3565b611c45565b6040516106c091906136a3565b60405180910390f35b3480156106d557600080fd5b506106f060048036038101906106eb91906137a6565b611cd9565b604051610704989796959493929190614003565b60405180910390f35b34801561071957600080fd5b50610734600480360381019061072f9190613927565b611e3e565b005b610750600480360381019061074b919061408f565b611ec1565b60405161075d9190613cb4565b60405180910390f35b34801561077257600080fd5b5061078d600480360381019061078891906137a6565b61225b565b60405161079a91906136a3565b60405180910390f35b60007f80ac58cd000000000000000000000000000000000000000000000000000000007bffffffffffffffffffffffffffffffffffffffffffffffffffffffff1916827bffffffffffffffffffffffffffffffffffffffffffffffffffffffff1916148061086e57507f5b5e139f000000000000000000000000000000000000000000000000000000007bffffffffffffffffffffffffffffffffffffffffffffffffffffffff1916827bffffffffffffffffffffffffffffffffffffffffffffffffffffffff1916145b8061087e575061087d826124e4565b5b9050919050565b6060600080546108949061411a565b80601f01602080910402602001604051908101604052809291908181526020018280546108c09061411a565b801561090d5780601f106108e25761010080835404028352916020019161090d565b820191906000526020600020905b8154815290600101906020018083116108f057829003601f168201915b5050505050905090565b60006109228261254e565b6004600083815260200190815260200160002060009054906101000a900473ffffffffffffffffffffffffffffffffffffffff169050919050565b600061096882610ebe565b90508073ffffffffffffffffffffffffffffffffffffffff168373ffffffffffffffffffffffffffffffffffffffff16036109d8576040517f08c379a00000000000000000000000000000000000000000000000000000000081526004016109cf906141bd565b60405180910390fd5b8073ffffffffffffffffffffffffffffffffffffffff166109f7612599565b73ffffffffffffffffffffffffffffffffffffffff161480610a265750610a2581610a20612599565b611c45565b5b610a65576040517f08c379a0000000000000000000000000000000000000000000000000000000008152600401610a5c9061424f565b60405180910390fd5b610a6f83836125a1565b505050565b600c602052806000526040600020600091509050806000015490806001018054610a9d9061411a565b80601f0160208091040260200160405190810160405280929190818152602001828054610ac99061411a565b8015610b165780601f10610aeb57610100808354040283529160200191610b16565b820191906000526020600020905b815481529060010190602001808311610af957829003601f168201915b505050505090806002018054610b2b9061411a565b80601f0160208091040260200160405190810160405280929190818152602001828054610b579061411a565b8015610ba45780601f10610b7957610100808354040283529160200191610ba4565b820191906000526020600020905b815481529060010190602001808311610b8757829003601f168201915b5050505050908060030154908060040154908060050160009054906101000a900473ffffffffffffffffffffffffffffffffffffffff16908060050160149054906101000a900460ff16905087565b6060600f60008373ffffffffffffffffffffffffffffffffffffffff1673ffffffffffffffffffffffffffffffffffffffff168152602001908152602001600020805480602002602001604051908101604052809291908181526020018280548015610c7e57602002820191906000526020600020905b815481526020019060010190808311610c6a575b50505050509050919050565b610c9b610c95612599565b8261265a565b610cda576040517f08c379a0000000000000000000000000000000000000000000000000000000008152600401610cd1906142e1565b60405180910390fd5b610ce58383836126ef565b505050565b610cf4338261265a565b610d33576040517f08c379a0000000000000000000000000000000000000000000000000000000008152600401610d2a9061434d565b60405180910390fd5b600e600082815260200190815260200160002060020160009054906101000a900460ff1615610d97576040517f08c379a0000000000000000000000000000000000000000000000000000000008152600401610d8e906143b9565b60405180910390fd5b6001600e600083815260200190815260200160002060020160006101000a81548160ff021916908315150217905550807f1f5d53e38fbc5a40092861e993062e74fb6dc7acef58356c7b55aa1afd8b350160405160405180910390a250565b610e1183838360405180602001604052806000815250611634565b505050565b600e6020528060005260406000206000915090508060000154908060010154908060020160009054906101000a900460ff16908060030154905084565b606060106000838152602001908152602001600020805480602002602001604051908101604052809291908181526020018280548015610eb257602002820191906000526020600020905b815481526020019060010190808311610e9e575b50505050509050919050565b600080610eca836129e8565b9050600073ffffffffffffffffffffffffffffffffffffffff168173ffffffffffffffffffffffffffffffffffffffff1603610f3b576040517f08c379a0000000000000000000000000000000000000000000000000000000008152600401610f3290614425565b60405180910390fd5b80915050919050565b6060601160008373ffffffffffffffffffffffffffffffffffffffff1673ffffffffffffffffffffffffffffffffffffffff168152602001908152602001600020805480602002602001604051908101604052809291908181526020018280548015610fcf57602002820191906000526020600020905b815481526020019060010190808311610fbb575b50505050509050919050565b60003373ffffffffffffffffffffffffffffffffffffffff16600c600088815260200190815260200160002060050160009054906101000a900473ffffffffffffffffffffffffffffffffffffffff1673ffffffffffffffffffffffffffffffffffffffff1614611081576040517f08c379a0000000000000000000000000000000000000000000000000000000008152600401611078906144b7565b60405180910390fd5b600c600087815260200190815260200160002060050160149054906101000a900460ff166110e4576040517f08c379a00000000000000000000000000000000000000000000000000000000081526004016110db90614523565b60405180910390fd5b60008211611127576040517f08c379a000000000000000000000000000000000000000000000000000000000815260040161111e9061458f565b60405180910390fd5b611131600a612a25565b600061113d600a612a3b565b90506040518061010001604052808281526020018881526020018781526020018681526020018581526020018481526020016000815260200160011515815250600d6000838152602001908152602001600020600082015181600001556020820151816001015560408201518160020190816111b9919061475b565b5060608201518160030190816111cf919061475b565b506080820151816004015560a0820151816005015560c0820151816006015560e08201518160070160006101000a81548160ff0219169083151502179055509050506010600088815260200190815260200160002081908060018154018082558091505060019003906000526020600020016000909190919091505580877fdf9857a862bf77cd75af7297abdb9177b2baa5538fc2bad52034477e5713f94c888760405161127e92919061482d565b60405180910390a38091505095945050505050565b60008073ffffffffffffffffffffffffffffffffffffffff168273ffffffffffffffffffffffffffffffffffffffff1603611303576040517f08c379a00000000000000000000000000000000000000000000000000000000081526004016112fa906148cf565b60405180910390fd5b600360008373ffffffffffffffffffffffffffffffffffffffff1673ffffffffffffffffffffffffffffffffffffffff168152602001908152602001600020549050919050565b611352612a49565b61135c6000612ac7565b565b6000600d600088815260200190815260200160002090506000600c60008360010154815260200190815260200160002090503373ffffffffffffffffffffffffffffffffffffffff168160050160009054906101000a900473ffffffffffffffffffffffffffffffffffffffff1673ffffffffffffffffffffffffffffffffffffffff1614611422576040517f08c379a000000000000000000000000000000000000000000000000000000000815260040161141990614961565b60405180910390fd5b80600301544210611468576040517f08c379a000000000000000000000000000000000000000000000000000000000815260040161145f906149cd565b60405180910390fd5b6000875111156114855786826002019081611483919061475b565b505b6000865111156114a257858260030190816114a0919061475b565b505b60008511156114b5578482600401819055505b600084111561150f578160060154841015611505576040517f08c379a00000000000000000000000000000000000000000000000000000000081526004016114fc90614a5f565b60405180910390fd5b8382600501819055505b828260070160006101000a81548160ff021916908315150217905550877fb8ed2b4cf9b4fc5d3a09c0011aa442ac87c1c9bcfa1dd69105eeaf7c0990039d60405160405180910390a25050505050505050565b6000600760009054906101000a900473ffffffffffffffffffffffffffffffffffffffff16905090565b60606001805461159b9061411a565b80601f01602080910402602001604051908101604052809291908181526020018280546115c79061411a565b80156116145780601f106115e957610100808354040283529160200191611614565b820191906000526020600020905b8154815290600101906020018083116115f757829003601f168201915b5050505050905090565b611630611629612599565b8383612b8d565b5050565b61164561163f612599565b8361265a565b611684576040517f08c379a000000000000000000000000000000000000000000000000000000000815260040161167b906142e1565b60405180910390fd5b61169084848484612cf9565b50505050565b6000428310156116db576040517f08c379a00000000000000000000000000000000000000000000000000000000081526004016116d290614acb565b60405180910390fd5b82821161171d576040517f08c379a000000000000000000000000000000000000000000000000000000000815260040161171490614b5d565b60405180910390fd5b6117276009612a25565b60006117336009612a3b565b90506040518060e001604052808281526020018781526020018681526020018581526020018481526020013373ffffffffffffffffffffffffffffffffffffffff16815260200160011515815250600c60008381526020019081526020016000206000820151816000015560208201518160010190816117b3919061475b565b5060408201518160020190816117c9919061475b565b50606082015181600301556080820151816004015560a08201518160050160006101000a81548173ffffffffffffffffffffffffffffffffffffffff021916908373ffffffffffffffffffffffffffffffffffffffff16021790555060c08201518160050160146101000a81548160ff021916908315150217905550905050600f60003373ffffffffffffffffffffffffffffffffffffffff1673ffffffffffffffffffffffffffffffffffffffff1681526020019081526020016000208190806001815401808255809150506001900390600052602060002001600090919091909150553373ffffffffffffffffffffffffffffffffffffffff16817f40fb05b814a900c99fa0a76d919dfdeaf3389540e4ca70f97ba40ca9a38f3797886040516118f5919061374e565b60405180910390a380915050949350505050565b6000600c600088815260200190815260200160002090503373ffffffffffffffffffffffffffffffffffffffff168160050160009054906101000a900473ffffffffffffffffffffffffffffffffffffffff1673ffffffffffffffffffffffffffffffffffffffff16146119b2576040517f08c379a00000000000000000000000000000000000000000000000000000000081526004016119a990614bef565b60405180910390fd5b806003015442106119f8576040517f08c379a00000000000000000000000000000000000000000000000000000000081526004016119ef906149cd565b60405180910390fd5b6000841115611a4e5742841015611a44576040517f08c379a0000000000000000000000000000000000000000000000000000000008152600401611a3b90614acb565b60405180910390fd5b8381600301819055505b6000831115611aa75780600301548311611a9d576040517f08c379a0000000000000000000000000000000000000000000000000000000008152600401611a9490614b5d565b60405180910390fd5b8281600401819055505b600086511115611ac45785816001019081611ac2919061475b565b505b600085511115611ae15784816002019081611adf919061475b565b505b818160050160146101000a81548160ff021916908315150217905550867f809fa27991b070f066e1b77ccff5758336645c734a13941444cc6f45daa21a8960405160405180910390a250505050505050565b6060611b3e8261254e565b6000600660008481526020019081526020016000208054611b5e9061411a565b80601f0160208091040260200160405190810160405280929190818152602001828054611b8a9061411a565b8015611bd75780601f10611bac57610100808354040283529160200191611bd7565b820191906000526020600020905b815481529060010190602001808311611bba57829003601f168201915b505050505090506000611be8612d55565b90506000815103611bfd578192505050611c40565b600082511115611c32578082604051602001611c1a929190614c4b565b60405160208183030381529060405292505050611c40565b611c3b84612d6c565b925050505b919050565b6000600560008473ffffffffffffffffffffffffffffffffffffffff1673ffffffffffffffffffffffffffffffffffffffff16815260200190815260200160002060008373ffffffffffffffffffffffffffffffffffffffff1673ffffffffffffffffffffffffffffffffffffffff16815260200190815260200160002060009054906101000a900460ff16905092915050565b600d602052806000526040600020600091509050806000015490806001015490806002018054611d089061411a565b80601f0160208091040260200160405190810160405280929190818152602001828054611d349061411a565b8015611d815780601f10611d5657610100808354040283529160200191611d81565b820191906000526020600020905b815481529060010190602001808311611d6457829003601f168201915b505050505090806003018054611d969061411a565b80601f0160208091040260200160405190810160405280929190818152602001828054611dc29061411a565b8015611e0f5780601f10611de457610100808354040283529160200191611e0f565b820191906000526020600020905b815481529060010190602001808311611df257829003601f168201915b5050505050908060040154908060050154908060060154908060070160009054906101000a900460ff16905088565b611e46612a49565b600073ffffffffffffffffffffffffffffffffffffffff168173ffffffffffffffffffffffffffffffffffffffff1603611eb5576040517f08c379a0000000000000000000000000000000000000000000000000000000008152600401611eac90614ce1565b60405180910390fd5b611ebe81612ac7565b50565b6000611ecb612dd4565b6000600d600085815260200190815260200160002090506000600c60008360010154815260200190815260200160002090508160070160009054906101000a900460ff16611f4e576040517f08c379a0000000000000000000000000000000000000000000000000000000008152600401611f4590614d4d565b60405180910390fd5b8060050160149054906101000a900460ff16611f9f576040517f08c379a0000000000000000000000000000000000000000000000000000000008152600401611f9690614523565b60405180910390fd5b80600401544210611fe5576040517f08c379a0000000000000000000000000000000000000000000000000000000008152600401611fdc90614db9565b60405180910390fd5b816005015482600601541061202f576040517f08c379a000000000000000000000000000000000000000000000000000000000815260040161202690614e25565b60405180910390fd5b8160040154341015612076576040517f08c379a000000000000000000000000000000000000000000000000000000000815260040161206d90614e91565b60405180910390fd5b612080600b612a25565b600061208c600b612a3b565b90506120983382612e23565b6120a28186613040565b60405180608001604052808460010154815260200187815260200160001515815260200142815250600e6000838152602001908152602001600020600082015181600001556020820151816001015560408201518160020160006101000a81548160ff0219169083151502179055506060820151816003015590505082600601600081548092919061213390614ee0565b9190505550601160003373ffffffffffffffffffffffffffffffffffffffff1673ffffffffffffffffffffffffffffffffffffffff1681526020019081526020016000208190806001815401808255809150506001900390600052602060002001600090919091909150558160050160009054906101000a900473ffffffffffffffffffffffffffffffffffffffff1673ffffffffffffffffffffffffffffffffffffffff166108fc349081150290604051600060405180830381858888f19350505050158015612208573d6000803e3d6000fd5b50808684600101547ff4810f4af7d42912f869f8efa162c4287b2dbce7d45c8777141a2c01d68bc0af3360405161223f9190613814565b60405180910390a48093505050506122556130ad565b92915050565b6000612266826130b7565b61227357600090506124df565b6000600e600084815260200190815260200160002060405180608001604052908160008201548152602001600182015481526020016002820160009054906101000a900460ff1615151515815260200160038201548152505090506000600c6000836000015181526020019081526020016000206040518060e00160405290816000820154815260200160018201805461230c9061411a565b80601f01602080910402602001604051908101604052809291908181526020018280546123389061411a565b80156123855780601f1061235a57610100808354040283529160200191612385565b820191906000526020600020905b81548152906001019060200180831161236857829003601f168201915b5050505050815260200160028201805461239e9061411a565b80601f01602080910402602001604051908101604052809291908181526020018280546123ca9061411a565b80156124175780601f106123ec57610100808354040283529160200191612417565b820191906000526020600020905b8154815290600101906020018083116123fa57829003601f168201915b5050505050815260200160038201548152602001600482015481526020016005820160009054906101000a900473ffffffffffffffffffffffffffffffffffffffff1673ffffffffffffffffffffffffffffffffffffffff1673ffffffffffffffffffffffffffffffffffffffff1681526020016005820160149054906101000a900460ff161515151581525050905081604001511580156124ba57508060c001515b80156124ca575080606001514210155b80156124da575080608001514211155b925050505b919050565b60007f01ffc9a7000000000000000000000000000000000000000000000000000000007bffffffffffffffffffffffffffffffffffffffffffffffffffffffff1916827bffffffffffffffffffffffffffffffffffffffffffffffffffffffff1916149050919050565b612557816130b7565b612596576040517f08c379a000000000000000000000000000000000000000000000000000000000815260040161258d90614425565b60405180910390fd5b50565b600033905090565b816004600083815260200190815260200160002060006101000a81548173ffffffffffffffffffffffffffffffffffffffff021916908373ffffffffffffffffffffffffffffffffffffffff160217905550808273ffffffffffffffffffffffffffffffffffffffff1661261483610ebe565b73ffffffffffffffffffffffffffffffffffffffff167f8c5be1e5ebec7d5bd14f71427d1e84f3dd0314c0f7b2291e5b200ac8c7c3b92560405160405180910390a45050565b60008061266683610ebe565b90508073ffffffffffffffffffffffffffffffffffffffff168473ffffffffffffffffffffffffffffffffffffffff1614806126a857506126a78185611c45565b5b806126e657508373ffffffffffffffffffffffffffffffffffffffff166126ce84610917565b73ffffffffffffffffffffffffffffffffffffffff16145b91505092915050565b8273ffffffffffffffffffffffffffffffffffffffff1661270f82610ebe565b73ffffffffffffffffffffffffffffffffffffffff1614612765576040517f08c379a000000000000000000000000000000000000000000000000000000000815260040161275c90614f9a565b60405180910390fd5b600073ffffffffffffffffffffffffffffffffffffffff168273ffffffffffffffffffffffffffffffffffffffff16036127d4576040517f08c379a00000000000000000000000000000000000000000000000000000000081526004016127cb9061502c565b60405180910390fd5b6127e183838360016130f8565b8273ffffffffffffffffffffffffffffffffffffffff1661280182610ebe565b73ffffffffffffffffffffffffffffffffffffffff1614612857576040517f08c379a000000000000000000000000000000000000000000000000000000000815260040161284e90614f9a565b60405180910390fd5b6004600082815260200190815260200160002060006101000a81549073ffffffffffffffffffffffffffffffffffffffff02191690556001600360008573ffffffffffffffffffffffffffffffffffffffff1673ffffffffffffffffffffffffffffffffffffffff168152602001908152602001600020600082825403925050819055506001600360008473ffffffffffffffffffffffffffffffffffffffff1673ffffffffffffffffffffffffffffffffffffffff16815260200190815260200160002060008282540192505081905550816002600083815260200190815260200160002060006101000a81548173ffffffffffffffffffffffffffffffffffffffff021916908373ffffffffffffffffffffffffffffffffffffffff160217905550808273ffffffffffffffffffffffffffffffffffffffff168473ffffffffffffffffffffffffffffffffffffffff167fddf252ad1be2c89b69c2b068fc378daa952ba7f163c4a11628f55a4df523b3ef60405160405180910390a46129e3838383600161321e565b505050565b60006002600083815260200190815260200160002060009054906101000a900473ffffffffffffffffffffffffffffffffffffffff169050919050565b6001816000016000828254019250508190555050565b600081600001549050919050565b612a51612599565b73ffffffffffffffffffffffffffffffffffffffff16612a6f611562565b73ffffffffffffffffffffffffffffffffffffffff1614612ac5576040517f08c379a0000000000000000000000000000000000000000000000000000000008152600401612abc90615098565b60405180910390fd5b565b6000600760009054906101000a900473ffffffffffffffffffffffffffffffffffffffff16905081600760006101000a81548173ffffffffffffffffffffffffffffffffffffffff021916908373ffffffffffffffffffffffffffffffffffffffff1602179055508173ffffffffffffffffffffffffffffffffffffffff168173ffffffffffffffffffffffffffffffffffffffff167f8be0079c531659141344cd1fd0a4f28419497f9722a3daafe3b4186f6b6457e060405160405180910390a35050565b8173ffffffffffffffffffffffffffffffffffffffff168373ffffffffffffffffffffffffffffffffffffffff1603612bfb576040517f08c379a0000000000000000000000000000000000000000000000000000000008152600401612bf290615104565b60405180910390fd5b80600560008573ffffffffffffffffffffffffffffffffffffffff1673ffffffffffffffffffffffffffffffffffffffff16815260200190815260200160002060008473ffffffffffffffffffffffffffffffffffffffff1673ffffffffffffffffffffffffffffffffffffffff16815260200190815260200160002060006101000a81548160ff0219169083151502179055508173ffffffffffffffffffffffffffffffffffffffff168373ffffffffffffffffffffffffffffffffffffffff167f17307eab39ab6107e8899845ad3d59bd9653f200f220920489ca2b5937696c3183604051612cec91906136a3565b60405180910390a3505050565b612d048484846126ef565b612d1084848484613224565b612d4f576040517f08c379a0000000000000000000000000000000000000000000000000000000008152600401612d4690615196565b60405180910390fd5b50505050565b606060405180602001604052806000815250905090565b6060612d778261254e565b6000612d81612d55565b90506000815111612da15760405180602001604052806000815250612dcc565b80612dab846133ab565b604051602001612dbc929190614c4b565b6040516020818303038152906040525b915050919050565b600260085403612e19576040517f08c379a0000000000000000000000000000000000000000000000000000000008152600401612e1090615202565b60405180910390fd5b6002600881905550565b600073ffffffffffffffffffffffffffffffffffffffff168273ffffffffffffffffffffffffffffffffffffffff1603612e92576040517f08c379a0000000000000000000000000000000000000000000000000000000008152600401612e899061526e565b60405180910390fd5b612e9b816130b7565b15612edb576040517f08c379a0000000000000000000000000000000000000000000000000000000008152600401612ed2906152da565b60405180910390fd5b612ee96000838360016130f8565b612ef2816130b7565b15612f32576040517f08c379a0000000000000000000000000000000000000000000000000000000008152600401612f29906152da565b60405180910390fd5b6001600360008473ffffffffffffffffffffffffffffffffffffffff1673ffffffffffffffffffffffffffffffffffffffff16815260200190815260200160002060008282540192505081905550816002600083815260200190815260200160002060006101000a81548173ffffffffffffffffffffffffffffffffffffffff021916908373ffffffffffffffffffffffffffffffffffffffff160217905550808273ffffffffffffffffffffffffffffffffffffffff16600073ffffffffffffffffffffffffffffffffffffffff167fddf252ad1be2c89b69c2b068fc378daa952ba7f163c4a11628f55a4df523b3ef60405160405180910390a461303c60008383600161321e565b5050565b613049826130b7565b613088576040517f08c379a000000000000000000000000000000000000000000000000000000000815260040161307f9061536c565b60405180910390fd5b806006600084815260200190815260200160002090816130a8919061475b565b505050565b6001600881905550565b60008073ffffffffffffffffffffffffffffffffffffffff166130d9836129e8565b73ffffffffffffffffffffffffffffffffffffffff1614159050919050565b600181111561321857600073ffffffffffffffffffffffffffffffffffffffff168473ffffffffffffffffffffffffffffffffffffffff161461318c5780600360008673ffffffffffffffffffffffffffffffffffffffff1673ffffffffffffffffffffffffffffffffffffffff1681526020019081526020016000206000828254613184919061538c565b925050819055505b600073ffffffffffffffffffffffffffffffffffffffff168373ffffffffffffffffffffffffffffffffffffffff16146132175780600360008573ffffffffffffffffffffffffffffffffffffffff1673ffffffffffffffffffffffffffffffffffffffff168152602001908152602001600020600082825461320f91906153c0565b925050819055505b5b50505050565b50505050565b60006132458473ffffffffffffffffffffffffffffffffffffffff16613479565b1561339e578373ffffffffffffffffffffffffffffffffffffffff1663150b7a0261326e612599565b8786866040518563ffffffff1660e01b81526004016132909493929190615449565b6020604051808303816000875af19250505080156132cc57506040513d601f19601f820116820180604052508101906132c991906154aa565b60015b61334e573d80600081146132fc576040519150601f19603f3d011682016040523d82523d6000602084013e613301565b606091505b506000815103613346576040517f08c379a000000000000000000000000000000000000000000000000000000000815260040161333d90615196565b60405180910390fd5b805181602001fd5b63150b7a0260e01b7bffffffffffffffffffffffffffffffffffffffffffffffffffffffff1916817bffffffffffffffffffffffffffffffffffffffffffffffffffffffff1916149150506133a3565b600190505b949350505050565b6060600060016133ba8461349c565b01905060008167ffffffffffffffff8111156133d9576133d8613ad6565b5b6040519080825280601f01601f19166020018201604052801561340b5781602001600182028036833780820191505090505b509050600082602001820190505b60011561346e578080600190039150507f3031323334353637383961626364656600000000000000000000000000000000600a86061a8153600a8581613462576134616154d7565b5b04945060008503613419575b819350505050919050565b6000808273ffffffffffffffffffffffffffffffffffffffff163b119050919050565b600080600090507a184f03e93ff9f4daa797ed6e38ed64bf6a1f01000000000000000083106134fa577a184f03e93ff9f4daa797ed6e38ed64bf6a1f01000000000000000083816134f0576134ef6154d7565b5b0492506040810190505b6d04ee2d6d415b85acef81000000008310613537576d04ee2d6d415b85acef8100000000838161352d5761352c6154d7565b5b0492506020810190505b662386f26fc10000831061356657662386f26fc10000838161355c5761355b6154d7565b5b0492506010810190505b6305f5e100831061358f576305f5e1008381613585576135846154d7565b5b0492506008810190505b61271083106135b45761271083816135aa576135a96154d7565b5b0492506004810190505b606483106135d757606483816135cd576135cc6154d7565b5b0492506002810190505b600a83106135e6576001810190505b80915050919050565b6000604051905090565b600080fd5b600080fd5b60007fffffffff0000000000000000000000000000000000000000000000000000000082169050919050565b61363881613603565b811461364357600080fd5b50565b6000813590506136558161362f565b92915050565b600060208284031215613671576136706135f9565b5b600061367f84828501613646565b91505092915050565b60008115159050919050565b61369d81613688565b82525050565b60006020820190506136b86000830184613694565b92915050565b600081519050919050565b600082825260208201905092915050565b60005b838110156136f85780820151818401526020810190506136dd565b60008484015250505050565b6000601f19601f8301169050919050565b6000613720826136be565b61372a81856136c9565b935061373a8185602086016136da565b61374381613704565b840191505092915050565b600060208201905081810360008301526137688184613715565b905092915050565b6000819050919050565b61378381613770565b811461378e57600080fd5b50565b6000813590506137a08161377a565b92915050565b6000602082840312156137bc576137bb6135f9565b5b60006137ca84828501613791565b91505092915050565b600073ffffffffffffffffffffffffffffffffffffffff82169050919050565b60006137fe826137d3565b9050919050565b61380e816137f3565b82525050565b60006020820190506138296000830184613805565b92915050565b613838816137f3565b811461384357600080fd5b50565b6000813590506138558161382f565b92915050565b60008060408385031215613872576138716135f9565b5b600061388085828601613846565b925050602061389185828601613791565b9150509250929050565b6138a481613770565b82525050565b600060e0820190506138bf600083018a61389b565b81810360208301526138d18189613715565b905081810360408301526138e58188613715565b90506138f4606083018761389b565b613901608083018661389b565b61390e60a0830185613805565b61391b60c0830184613694565b98975050505050505050565b60006020828403121561393d5761393c6135f9565b5b600061394b84828501613846565b91505092915050565b600081519050919050565b600082825260208201905092915050565b6000819050602082019050919050565b61398981613770565b82525050565b600061399b8383613980565b60208301905092915050565b6000602082019050919050565b60006139bf82613954565b6139c9818561395f565b93506139d483613970565b8060005b83811015613a055781516139ec888261398f565b97506139f7836139a7565b9250506001810190506139d8565b5085935050505092915050565b60006020820190508181036000830152613a2c81846139b4565b905092915050565b600080600060608486031215613a4d57613a4c6135f9565b5b6000613a5b86828701613846565b9350506020613a6c86828701613846565b9250506040613a7d86828701613791565b9150509250925092565b6000608082019050613a9c600083018761389b565b613aa9602083018661389b565b613ab66040830185613694565b613ac3606083018461389b565b95945050505050565b600080fd5b600080fd5b7f4e487b7100000000000000000000000000000000000000000000000000000000600052604160045260246000fd5b613b0e82613704565b810181811067ffffffffffffffff82111715613b2d57613b2c613ad6565b5b80604052505050565b6000613b406135ef565b9050613b4c8282613b05565b919050565b600067ffffffffffffffff821115613b6c57613b6b613ad6565b5b613b7582613704565b9050602081019050919050565b82818337600083830152505050565b6000613ba4613b9f84613b51565b613b36565b905082815260208101848484011115613bc057613bbf613ad1565b5b613bcb848285613b82565b509392505050565b600082601f830112613be857613be7613acc565b5b8135613bf8848260208601613b91565b91505092915050565b600080600080600060a08688031215613c1d57613c1c6135f9565b5b6000613c2b88828901613791565b955050602086013567ffffffffffffffff811115613c4c57613c4b6135fe565b5b613c5888828901613bd3565b945050604086013567ffffffffffffffff811115613c7957613c786135fe565b5b613c8588828901613bd3565b9350506060613c9688828901613791565b9250506080613ca788828901613791565b9150509295509295909350565b6000602082019050613cc9600083018461389b565b92915050565b613cd881613688565b8114613ce357600080fd5b50565b600081359050613cf581613ccf565b92915050565b60008060008060008060c08789031215613d1857613d176135f9565b5b6000613d2689828a01613791565b965050602087013567ffffffffffffffff811115613d4757613d466135fe565b5b613d5389828a01613bd3565b955050604087013567ffffffffffffffff811115613d7457613d736135fe565b5b613d8089828a01613bd3565b9450506060613d9189828a01613791565b9350506080613da289828a01613791565b92505060a0613db389828a01613ce6565b9150509295509295509295565b60008060408385031215613dd757613dd66135f9565b5b6000613de585828601613846565b9250506020613df685828601613ce6565b9150509250929050565b600067ffffffffffffffff821115613e1b57613e1a613ad6565b5b613e2482613704565b9050602081019050919050565b6000613e44613e3f84613e00565b613b36565b905082815260208101848484011115613e6057613e5f613ad1565b5b613e6b848285613b82565b509392505050565b600082601f830112613e8857613e87613acc565b5b8135613e98848260208601613e31565b91505092915050565b60008060008060808587031215613ebb57613eba6135f9565b5b6000613ec987828801613846565b9450506020613eda87828801613846565b9350506040613eeb87828801613791565b925050606085013567ffffffffffffffff811115613f0c57613f0b6135fe565b5b613f1887828801613e73565b91505092959194509250565b60008060008060808587031215613f3e57613f3d6135f9565b5b600085013567ffffffffffffffff811115613f5c57613f5b6135fe565b5b613f6887828801613bd3565b945050602085013567ffffffffffffffff811115613f8957613f886135fe565b5b613f9587828801613bd3565b9350506040613fa687828801613791565b9250506060613fb787828801613791565b91505092959194509250565b60008060408385031215613fda57613fd96135f9565b5b6000613fe885828601613846565b9250506020613ff985828601613846565b9150509250929050565b600061010082019050614019600083018b61389b565b614026602083018a61389b565b81810360408301526140388189613715565b9050818103606083015261404c8188613715565b905061405b608083018761389b565b61406860a083018661389b565b61407560c083018561389b565b61408260e0830184613694565b9998505050505050505050565b600080604083850312156140a6576140a56135f9565b5b60006140b485828601613791565b925050602083013567ffffffffffffffff8111156140d5576140d46135fe565b5b6140e185828601613bd3565b9150509250929050565b7f4e487b7100000000000000000000000000000000000000000000000000000000600052602260045260246000fd5b6000600282049050600182168061413257607f821691505b602082108103614145576141446140eb565b5b50919050565b7f4552433732313a20617070726f76616c20746f2063757272656e74206f776e6560008201527f7200000000000000000000000000000000000000000000000000000000000000602082015250565b60006141a76021836136c9565b91506141b28261414b565b604082019050919050565b600060208201905081810360008301526141d68161419a565b9050919050565b7f4552433732313a20617070726f76652063616c6c6572206973206e6f7420746f60008201527f6b656e206f776e6572206f7220617070726f76656420666f7220616c6c000000602082015250565b6000614239603d836136c9565b9150614244826141dd565b604082019050919050565b600060208201905081810360008301526142688161422c565b9050919050565b7f4552433732313a2063616c6c6572206973206e6f7420746f6b656e206f776e6560008201527f72206f7220617070726f76656400000000000000000000000000000000000000602082015250565b60006142cb602d836136c9565b91506142d68261426f565b604082019050919050565b600060208201905081810360008301526142fa816142be565b9050919050565b7f43616c6c6572206973206e6f74206f776e6572206e6f7220617070726f766564600082015250565b60006143376020836136c9565b915061434282614301565b602082019050919050565b600060208201905081810360008301526143668161432a565b9050919050565b7f5469636b65742068617320616c7265616479206265656e207573656400000000600082015250565b60006143a3601c836136c9565b91506143ae8261436d565b602082019050919050565b600060208201905081810360008301526143d281614396565b9050919050565b7f4552433732313a20696e76616c696420746f6b656e2049440000000000000000600082015250565b600061440f6018836136c9565b915061441a826143d9565b602082019050919050565b6000602082019050818103600083015261443e81614402565b9050919050565b7f4f6e6c79206576656e742063726561746f722063616e2063726561746520746960008201527f636b657420747970657300000000000000000000000000000000000000000000602082015250565b60006144a1602a836136c9565b91506144ac82614445565b604082019050919050565b600060208201905081810360008301526144d081614494565b9050919050565b7f4576656e74206973206e6f742061637469766500000000000000000000000000600082015250565b600061450d6013836136c9565b9150614518826144d7565b602082019050919050565b6000602082019050818103600083015261453c81614500565b9050919050565b7f537570706c79206d7573742062652067726561746572207468616e207a65726f600082015250565b60006145796020836136c9565b915061458482614543565b602082019050919050565b600060208201905081810360008301526145a88161456c565b9050919050565b60008190508160005260206000209050919050565b60006020601f8301049050919050565b600082821b905092915050565b6000600883026146117fffffffffffffffffffffffffffffffffffffffffffffffffffffffffffffffff826145d4565b61461b86836145d4565b95508019841693508086168417925050509392505050565b6000819050919050565b600061465861465361464e84613770565b614633565b613770565b9050919050565b6000819050919050565b6146728361463d565b61468661467e8261465f565b8484546145e1565b825550505050565b600090565b61469b61468e565b6146a6818484614669565b505050565b5b818110156146ca576146bf600082614693565b6001810190506146ac565b5050565b601f82111561470f576146e0816145af565b6146e9846145c4565b810160208510156146f8578190505b61470c614704856145c4565b8301826146ab565b50505b505050565b600082821c905092915050565b600061473260001984600802614714565b1980831691505092915050565b600061474b8383614721565b9150826002028217905092915050565b614764826136be565b67ffffffffffffffff81111561477d5761477c613ad6565b5b614787825461411a565b6147928282856146ce565b600060209050601f8311600181146147c557600084156147b3578287015190505b6147bd858261473f565b865550614825565b601f1984166147d3866145af565b60005b828110156147fb578489015182556001820191506020850194506020810190506147d6565b868310156148185784890151614814601f891682614721565b8355505b6001600288020188555050505b505050505050565b600060408201905081810360008301526148478185613715565b9050614856602083018461389b565b9392505050565b7f4552433732313a2061646472657373207a65726f206973206e6f74206120766160008201527f6c6964206f776e65720000000000000000000000000000000000000000000000602082015250565b60006148b96029836136c9565b91506148c48261485d565b604082019050919050565b600060208201905081810360008301526148e8816148ac565b9050919050565b7f4f6e6c79206576656e742063726561746f722063616e2075706461746520746960008201527f636b657420747970650000000000000000000000000000000000000000000000602082015250565b600061494b6029836136c9565b9150614956826148ef565b604082019050919050565b6000602082019050818103600083015261497a8161493e565b9050919050565b7f4576656e742068617320616c7265616479207374617274656400000000000000600082015250565b60006149b76019836136c9565b91506149c282614981565b602082019050919050565b600060208201905081810360008301526149e6816149aa565b9050919050565b7f537570706c792063616e6e6f74206265206c657373207468616e20736f6c642060008201527f7469636b65747300000000000000000000000000000000000000000000000000602082015250565b6000614a496027836136c9565b9150614a54826149ed565b604082019050919050565b60006020820190508181036000830152614a7881614a3c565b9050919050565b7f53746172742064617465206d75737420626520696e2074686520667574757265600082015250565b6000614ab56020836136c9565b9150614ac082614a7f565b602082019050919050565b60006020820190508181036000830152614ae481614aa8565b9050919050565b7f456e642064617465206d7573742062652061667465722073746172742064617460008201527f6500000000000000000000000000000000000000000000000000000000000000602082015250565b6000614b476021836136c9565b9150614b5282614aeb565b604082019050919050565b60006020820190508181036000830152614b7681614b3a565b9050919050565b7f4f6e6c79206576656e742063726561746f722063616e2075706461746520657660008201527f656e740000000000000000000000000000000000000000000000000000000000602082015250565b6000614bd96023836136c9565b9150614be482614b7d565b604082019050919050565b60006020820190508181036000830152614c0881614bcc565b9050919050565b600081905092915050565b6000614c25826136be565b614c2f8185614c0f565b9350614c3f8185602086016136da565b80840191505092915050565b6000614c578285614c1a565b9150614c638284614c1a565b91508190509392505050565b7f4f776e61626c653a206e6577206f776e657220697320746865207a65726f206160008201527f6464726573730000000000000000000000000000000000000000000000000000602082015250565b6000614ccb6026836136c9565b9150614cd682614c6f565b604082019050919050565b60006020820190508181036000830152614cfa81614cbe565b9050919050565b7f5469636b65742074797065206973206e6f742061637469766500000000000000600082015250565b6000614d376019836136c9565b9150614d4282614d01565b602082019050919050565b60006020820190508181036000830152614d6681614d2a565b9050919050565b7f4576656e742068617320656e6465640000000000000000000000000000000000600082015250565b6000614da3600f836136c9565b9150614dae82614d6d565b602082019050919050565b60006020820190508181036000830152614dd281614d96565b9050919050565b7f5469636b6574207479706520697320736f6c64206f7574000000000000000000600082015250565b6000614e0f6017836136c9565b9150614e1a82614dd9565b602082019050919050565b60006020820190508181036000830152614e3e81614e02565b9050919050565b7f496e73756666696369656e74207061796d656e74000000000000000000000000600082015250565b6000614e7b6014836136c9565b9150614e8682614e45565b602082019050919050565b60006020820190508181036000830152614eaa81614e6e565b9050919050565b7f4e487b7100000000000000000000000000000000000000000000000000000000600052601160045260246000fd5b6000614eeb82613770565b91507fffffffffffffffffffffffffffffffffffffffffffffffffffffffffffffffff8203614f1d57614f1c614eb1565b5b600182019050919050565b7f4552433732313a207472616e736665722066726f6d20696e636f72726563742060008201527f6f776e6572000000000000000000000000000000000000000000000000000000602082015250565b6000614f846025836136c9565b9150614f8f82614f28565b604082019050919050565b60006020820190508181036000830152614fb381614f77565b9050919050565b7f4552433732313a207472616e7366657220746f20746865207a65726f2061646460008201527f7265737300000000000000000000000000000000000000000000000000000000602082015250565b60006150166024836136c9565b915061502182614fba565b604082019050919050565b6000602082019050818103600083015261504581615009565b9050919050565b7f4f776e61626c653a2063616c6c6572206973206e6f7420746865206f776e6572600082015250565b60006150826020836136c9565b915061508d8261504c565b602082019050919050565b600060208201905081810360008301526150b181615075565b9050919050565b7f4552433732313a20617070726f766520746f2063616c6c657200000000000000600082015250565b60006150ee6019836136c9565b91506150f9826150b8565b602082019050919050565b6000602082019050818103600083015261511d816150e1565b9050919050565b7f4552433732313a207472616e7366657220746f206e6f6e20455243373231526560008201527f63656976657220696d706c656d656e7465720000000000000000000000000000602082015250565b60006151806032836136c9565b915061518b82615124565b604082019050919050565b600060208201905081810360008301526151af81615173565b9050919050565b7f5265656e7472616e637947756172643a207265656e7472616e742063616c6c00600082015250565b60006151ec601f836136c9565b91506151f7826151b6565b602082019050919050565b6000602082019050818103600083015261521b816151df565b9050919050565b7f4552433732313a206d696e7420746f20746865207a65726f2061646472657373600082015250565b60006152586020836136c9565b915061526382615222565b602082019050919050565b600060208201905081810360008301526152878161524b565b9050919050565b7f4552433732313a20746f6b656e20616c7265616479206d696e74656400000000600082015250565b60006152c4601c836136c9565b91506152cf8261528e565b602082019050919050565b600060208201905081810360008301526152f3816152b7565b9050919050565b7f45524337323155524953746f726167653a2055524920736574206f66206e6f6e60008201527f6578697374656e7420746f6b656e000000000000000000000000000000000000602082015250565b6000615356602e836136c9565b9150615361826152fa565b604082019050919050565b6000602082019050818103600083015261538581615349565b9050919050565b600061539782613770565b91506153a283613770565b92508282039050818111156153ba576153b9614eb1565b5b92915050565b60006153cb82613770565b91506153d683613770565b92508282019050808211156153ee576153ed614eb1565b5b92915050565b600081519050919050565b600082825260208201905092915050565b600061541b826153f4565b61542581856153ff565b93506154358185602086016136da565b61543e81613704565b840191505092915050565b600060808201905061545e6000830187613805565b61546b6020830186613805565b615478604083018561389b565b818103606083015261548a8184615410565b905095945050505050565b6000815190506154a48161362f565b92915050565b6000602082840312156154c0576154bf6135f9565b5b60006154ce84828501615495565b91505092915050565b7f4e487b7100000000000000000000000000000000000000000000000000000000600052601260045260246000fdfea2646970667358221220887d3d27a877a7fb525a1b488fbc13b3f57ba8e3889f61e336a1e23d37b6ca9264736f6c63430008110033",
  "linkReferences": {},
  "deployedLinkReferences": {}
}